{
  "_format": "hh-sol-artifact-1",
  "contractName": "DigitalSecuritiesVault",
  "sourceName": "contracts/DigitalSecuritiesVault.sol",
  "abi": [
    {
      "inputs": [],
      "stateMutability": "nonpayable",
      "type": "constructor"
    },
    {
      "anonymous": false,
      "inputs": [
        {
          "indexed": true,
          "internalType": "bytes32",
          "name": "intentHash",
          "type": "bytes32"
        }
      ],
      "name": "DepositIntentCancelled",
      "type": "event"
    },
    {
      "anonymous": false,
      "inputs": [
        {
          "indexed": false,
          "internalType": "address",
          "name": "sender",
          "type": "address"
        },
        {
          "indexed": false,
          "internalType": "address",
          "name": "tokenAddress",
          "type": "address"
        },
        {
          "indexed": false,
          "internalType": "address",
          "name": "receiverAddress",
          "type": "address"
        },
        {
          "indexed": false,
          "internalType": "string",
          "name": "receiverId",
          "type": "string"
        },
        {
          "indexed": false,
          "internalType": "uint256",
          "name": "amount",
          "type": "uint256"
        }
      ],
      "name": "DepositIntentSatisfied",
      "type": "event"
    },
    {
      "anonymous": false,
      "inputs": [
        {
          "indexed": false,
          "internalType": "address",
          "name": "sender",
          "type": "address"
        },
        {
          "indexed": false,
          "internalType": "address",
          "name": "tokenAddress",
          "type": "address"
        },
        {
          "indexed": false,
          "internalType": "address",
          "name": "receiverAddress",
          "type": "address"
        },
        {
          "indexed": false,
          "internalType": "string",
          "name": "receiverId",
          "type": "string"
        },
        {
          "indexed": false,
          "internalType": "uint256",
          "name": "amount",
          "type": "uint256"
        }
      ],
      "name": "DepositIntentSubmitted",
      "type": "event"
    },
    {
      "anonymous": false,
      "inputs": [
        {
          "indexed": true,
          "internalType": "bytes32",
          "name": "role",
          "type": "bytes32"
        },
        {
          "indexed": true,
          "internalType": "bytes32",
          "name": "previousAdminRole",
          "type": "bytes32"
        },
        {
          "indexed": true,
          "internalType": "bytes32",
          "name": "newAdminRole",
          "type": "bytes32"
        }
      ],
      "name": "RoleAdminChanged",
      "type": "event"
    },
    {
      "anonymous": false,
      "inputs": [
        {
          "indexed": true,
          "internalType": "bytes32",
          "name": "role",
          "type": "bytes32"
        },
        {
          "indexed": true,
          "internalType": "address",
          "name": "account",
          "type": "address"
        },
        {
          "indexed": true,
          "internalType": "address",
          "name": "sender",
          "type": "address"
        }
      ],
      "name": "RoleGranted",
      "type": "event"
    },
    {
      "anonymous": false,
      "inputs": [
        {
          "indexed": true,
          "internalType": "bytes32",
          "name": "role",
          "type": "bytes32"
        },
        {
          "indexed": true,
          "internalType": "address",
          "name": "account",
          "type": "address"
        },
        {
          "indexed": true,
          "internalType": "address",
          "name": "sender",
          "type": "address"
        }
      ],
      "name": "RoleRevoked",
      "type": "event"
    },
    {
      "anonymous": false,
      "inputs": [
        {
          "indexed": true,
          "internalType": "bytes32",
          "name": "intentHash",
          "type": "bytes32"
        }
      ],
      "name": "WithdrawalIntentCancelled",
      "type": "event"
    },
    {
      "anonymous": false,
      "inputs": [
        {
          "indexed": false,
          "internalType": "address",
          "name": "tokenAddress",
          "type": "address"
        },
        {
          "indexed": false,
          "internalType": "address",
          "name": "withdrawalAddress",
          "type": "address"
        },
        {
          "indexed": false,
          "internalType": "address",
          "name": "initiatorAddress",
          "type": "address"
        },
        {
          "indexed": false,
          "internalType": "uint256",
          "name": "amount",
          "type": "uint256"
        }
      ],
      "name": "WithdrawalIntentConfirmed",
      "type": "event"
    },
    {
      "anonymous": false,
      "inputs": [
        {
          "indexed": false,
          "internalType": "address",
          "name": "tokenAddress",
          "type": "address"
        },
        {
          "indexed": false,
          "internalType": "address",
          "name": "withdrawalAddress",
          "type": "address"
        },
        {
          "indexed": false,
          "internalType": "address",
          "name": "initiatorAddress",
          "type": "address"
        },
        {
          "indexed": false,
          "internalType": "uint256",
          "name": "amount",
          "type": "uint256"
        }
      ],
      "name": "WithdrawalIntentSubmitted",
      "type": "event"
    },
    {
      "inputs": [],
      "name": "DEFAULT_ADMIN_ROLE",
      "outputs": [
        {
          "internalType": "bytes32",
          "name": "",
          "type": "bytes32"
        }
      ],
      "stateMutability": "view",
      "type": "function"
    },
    {
      "inputs": [
        {
          "components": [
            {
              "internalType": "address",
              "name": "sender",
              "type": "address"
            },
            {
              "internalType": "address",
              "name": "tokenAddress",
              "type": "address"
            },
            {
              "internalType": "address",
              "name": "initiatorAddress",
              "type": "address"
            },
            {
              "internalType": "string",
              "name": "receiverId",
              "type": "string"
            },
            {
              "internalType": "uint256",
              "name": "amount",
              "type": "uint256"
            }
          ],
          "internalType": "struct DigitalSecuritiesVault.DepositIntent",
          "name": "depositIntent",
          "type": "tuple"
        }
      ],
      "name": "cancelDepositIntent",
      "outputs": [],
      "stateMutability": "nonpayable",
      "type": "function"
    },
    {
      "inputs": [
        {
          "components": [
            {
              "internalType": "address",
              "name": "tokenAddress",
              "type": "address"
            },
            {
              "internalType": "address",
              "name": "withdrawalAddress",
              "type": "address"
            },
            {
              "internalType": "address",
              "name": "initiatorAddress",
              "type": "address"
            },
            {
              "internalType": "uint256",
              "name": "amount",
              "type": "uint256"
            }
          ],
          "internalType": "struct DigitalSecuritiesVault.WithdrawalIntent",
          "name": "withdrawalIntent",
          "type": "tuple"
        }
      ],
      "name": "cancelWithdrawalIntent",
      "outputs": [],
      "stateMutability": "nonpayable",
      "type": "function"
    },
    {
      "inputs": [
        {
          "components": [
            {
              "internalType": "address",
              "name": "tokenAddress",
              "type": "address"
            },
            {
              "internalType": "address",
              "name": "withdrawalAddress",
              "type": "address"
            },
            {
              "internalType": "address",
              "name": "initiatorAddress",
              "type": "address"
            },
            {
              "internalType": "uint256",
              "name": "amount",
              "type": "uint256"
            }
          ],
          "internalType": "struct DigitalSecuritiesVault.WithdrawalIntent",
          "name": "withdrawalIntent",
          "type": "tuple"
        }
      ],
      "name": "confirmWithdrawalIntent",
      "outputs": [],
      "stateMutability": "nonpayable",
      "type": "function"
    },
    {
      "inputs": [
        {
          "internalType": "bytes32",
          "name": "role",
          "type": "bytes32"
        }
      ],
      "name": "getRoleAdmin",
      "outputs": [
        {
          "internalType": "bytes32",
          "name": "",
          "type": "bytes32"
        }
      ],
      "stateMutability": "view",
      "type": "function"
    },
    {
      "inputs": [
        {
          "internalType": "bytes32",
          "name": "role",
          "type": "bytes32"
        },
        {
          "internalType": "address",
          "name": "account",
          "type": "address"
        }
      ],
      "name": "grantRole",
      "outputs": [],
      "stateMutability": "nonpayable",
      "type": "function"
    },
    {
      "inputs": [
        {
          "internalType": "bytes32",
          "name": "role",
          "type": "bytes32"
        },
        {
          "internalType": "address",
          "name": "account",
          "type": "address"
        }
      ],
      "name": "hasRole",
      "outputs": [
        {
          "internalType": "bool",
          "name": "",
          "type": "bool"
        }
      ],
      "stateMutability": "view",
      "type": "function"
    },
    {
      "inputs": [
        {
          "internalType": "bytes32",
          "name": "intentHash",
          "type": "bytes32"
        }
      ],
      "name": "isDepositIntentActive",
      "outputs": [
        {
          "internalType": "bool",
          "name": "",
          "type": "bool"
        }
      ],
      "stateMutability": "view",
      "type": "function"
    },
    {
      "inputs": [
        {
          "internalType": "bytes32",
          "name": "intentHash",
          "type": "bytes32"
        }
      ],
      "name": "isWithdrawalIntentActive",
      "outputs": [
        {
          "internalType": "bool",
          "name": "",
          "type": "bool"
        }
      ],
      "stateMutability": "view",
      "type": "function"
    },
    {
      "inputs": [
        {
          "internalType": "bytes32",
          "name": "role",
          "type": "bytes32"
        },
        {
          "internalType": "address",
          "name": "account",
          "type": "address"
        }
      ],
      "name": "renounceRole",
      "outputs": [],
      "stateMutability": "nonpayable",
      "type": "function"
    },
    {
      "inputs": [
        {
          "internalType": "bytes32",
          "name": "role",
          "type": "bytes32"
        },
        {
          "internalType": "address",
          "name": "account",
          "type": "address"
        }
      ],
      "name": "revokeRole",
      "outputs": [],
      "stateMutability": "nonpayable",
      "type": "function"
    },
    {
      "inputs": [
        {
          "components": [
            {
              "internalType": "address",
              "name": "sender",
              "type": "address"
            },
            {
              "internalType": "address",
              "name": "tokenAddress",
              "type": "address"
            },
            {
              "internalType": "address",
              "name": "initiatorAddress",
              "type": "address"
            },
            {
              "internalType": "string",
              "name": "receiverId",
              "type": "string"
            },
            {
              "internalType": "uint256",
              "name": "amount",
              "type": "uint256"
            }
          ],
          "internalType": "struct DigitalSecuritiesVault.DepositIntent",
          "name": "depositIntent",
          "type": "tuple"
        }
      ],
      "name": "satisfyDepositIntent",
      "outputs": [],
      "stateMutability": "nonpayable",
      "type": "function"
    },
    {
      "inputs": [
        {
          "components": [
            {
              "internalType": "address",
              "name": "sender",
              "type": "address"
            },
            {
              "internalType": "address",
              "name": "tokenAddress",
              "type": "address"
            },
            {
              "internalType": "address",
              "name": "initiatorAddress",
              "type": "address"
            },
            {
              "internalType": "string",
              "name": "receiverId",
              "type": "string"
            },
            {
              "internalType": "uint256",
              "name": "amount",
              "type": "uint256"
            }
          ],
          "internalType": "struct DigitalSecuritiesVault.DepositIntent",
          "name": "depositIntent",
          "type": "tuple"
        }
      ],
      "name": "submitDepositIntent",
      "outputs": [
        {
          "internalType": "bytes32",
          "name": "",
          "type": "bytes32"
        }
      ],
      "stateMutability": "nonpayable",
      "type": "function"
    },
    {
      "inputs": [
        {
          "components": [
            {
              "internalType": "address",
              "name": "tokenAddress",
              "type": "address"
            },
            {
              "internalType": "address",
              "name": "withdrawalAddress",
              "type": "address"
            },
            {
              "internalType": "address",
              "name": "initiatorAddress",
              "type": "address"
            },
            {
              "internalType": "uint256",
              "name": "amount",
              "type": "uint256"
            }
          ],
          "internalType": "struct DigitalSecuritiesVault.WithdrawalIntent",
          "name": "withdrawalIntent",
          "type": "tuple"
        }
      ],
      "name": "submitWithdrawalIntent",
      "outputs": [
        {
          "internalType": "bytes32",
          "name": "",
          "type": "bytes32"
        }
      ],
      "stateMutability": "nonpayable",
      "type": "function"
    },
    {
      "inputs": [
        {
          "internalType": "bytes4",
          "name": "interfaceId",
          "type": "bytes4"
        }
      ],
      "name": "supportsInterface",
      "outputs": [
        {
          "internalType": "bool",
          "name": "",
          "type": "bool"
        }
      ],
      "stateMutability": "view",
      "type": "function"
    },
    {
      "stateMutability": "payable",
      "type": "receive"
    }
  ],
  "bytecode": "0x608060405234801562000010575f80fd5b50620000255f801b336200002b60201b60201c565b62000180565b6200003d82826200011660201b60201c565b620001125760015f808481526020019081526020015f205f015f8373ffffffffffffffffffffffffffffffffffffffff1673ffffffffffffffffffffffffffffffffffffffff1681526020019081526020015f205f6101000a81548160ff021916908315150217905550620000b76200017960201b60201c565b73ffffffffffffffffffffffffffffffffffffffff168173ffffffffffffffffffffffffffffffffffffffff16837f2f8788117e7eff1d82e926ec794901d17c78024a50270940304540a733656f0d60405160405180910390a45b5050565b5f805f8481526020019081526020015f205f015f8373ffffffffffffffffffffffffffffffffffffffff1673ffffffffffffffffffffffffffffffffffffffff1681526020019081526020015f205f9054906101000a900460ff16905092915050565b5f33905090565b612af7806200018e5f395ff3fe6080604052600436106100eb575f3560e01c80637d58208511610089578063c816da8811610058578063c816da8814610375578063d547741f1461039d578063ef52954c146103c5578063ffa35996146103ed5761012b565b80637d5820851461029757806391d14854146102d3578063a217fddf1461030f578063a9f34983146103395761012b565b80632f2ff15d116100c55780632f2ff15d146101e35780633210671e1461020b57806336568abe146102335780637526d2701461025b5761012b565b806301ffc9a71461012f5780631ac50a481461016b578063248a9ca3146101a75761012b565b3661012b576040517f08c379a000000000000000000000000000000000000000000000000000000000815260040161012290611860565b60405180910390fd5b5f80fd5b34801561013a575f80fd5b50610155600480360381019061015091906118db565b610415565b6040516101629190611920565b60405180910390f35b348015610176575f80fd5b50610191600480360381019061018c919061195b565b61048e565b60405161019e919061199e565b60405180910390f35b3480156101b2575f80fd5b506101cd60048036038101906101c891906119e1565b6106ef565b6040516101da919061199e565b60405180910390f35b3480156101ee575f80fd5b5061020960048036038101906102049190611a66565b61070b565b005b348015610216575f80fd5b50610231600480360381019061022c9190611ac2565b61072c565b005b34801561023e575f80fd5b5061025960048036038101906102549190611a66565b6108a0565b005b348015610266575f80fd5b50610281600480360381019061027c9190611ac2565b610923565b60405161028e919061199e565b60405180910390f35b3480156102a2575f80fd5b506102bd60048036038101906102b891906119e1565b610baa565b6040516102ca9190611920565b60405180910390f35b3480156102de575f80fd5b506102f960048036038101906102f49190611a66565b610bd0565b6040516103069190611920565b60405180910390f35b34801561031a575f80fd5b50610323610c33565b604051610330919061199e565b60405180910390f35b348015610344575f80fd5b5061035f600480360381019061035a91906119e1565b610c39565b60405161036c9190611920565b60405180910390f35b348015610380575f80fd5b5061039b60048036038101906103969190611ac2565b610c5f565b005b3480156103a8575f80fd5b506103c360048036038101906103be9190611a66565b610f36565b005b3480156103d0575f80fd5b506103eb60048036038101906103e6919061195b565b610f57565b005b3480156103f8575f80fd5b50610413600480360381019061040e919061195b565b611174565b005b5f7f7965db0b000000000000000000000000000000000000000000000000000000007bffffffffffffffffffffffffffffffffffffffffffffffffffffffff1916827bffffffffffffffffffffffffffffffffffffffffffffffffffffffff191614806104875750610486826112e8565b5b9050919050565b5f808260600135116104d5576040517f08c379a00000000000000000000000000000000000000000000000000000000081526004016104cc90611b79565b60405180910390fd5b3373ffffffffffffffffffffffffffffffffffffffff168260400160208101906104ff9190611b97565b73ffffffffffffffffffffffffffffffffffffffff1614610555576040517f08c379a000000000000000000000000000000000000000000000000000000000815260040161054c90611c58565b60405180910390fd5b61057f7f523a704056dcd17bcf83bed8b68c59416dac1119be77755efe3bde0a64e46e0c33610bd0565b156105bf576040517f08c379a00000000000000000000000000000000000000000000000000000000081526004016105b690611d0c565b60405180910390fd5b5f826040516020016105d19190611e1a565b60405160208183030381529060405280519060200120905060025f8281526020019081526020015f205f9054906101000a900460ff1615610647576040517f08c379a000000000000000000000000000000000000000000000000000000000815260040161063e90611ea3565b60405180910390fd5b600160025f8381526020019081526020015f205f6101000a81548160ff0219169083151502179055507f45c8709ee8c39c83c2c283a9778b3c6f98d4d0d48462a928f8befeb3b8bc092d835f0160208101906106a39190611b97565b8460200160208101906106b69190611b97565b8560400160208101906106c99190611b97565b86606001356040516106de9493929190611edf565b60405180910390a180915050919050565b5f805f8381526020019081526020015f20600101549050919050565b610714826106ef565b61071d81611351565b6107278383611365565b505050565b6107567f523a704056dcd17bcf83bed8b68c59416dac1119be77755efe3bde0a64e46e0c33610bd0565b8061079e575080604001602081019061076f9190611b97565b73ffffffffffffffffffffffffffffffffffffffff163373ffffffffffffffffffffffffffffffffffffffff16145b6107dd576040517f08c379a00000000000000000000000000000000000000000000000000000000081526004016107d490611f92565b60405180910390fd5b5f816040516020016107ef9190612115565b60405160208183030381529060405280519060200120905061081081610baa565b61084f576040517f08c379a00000000000000000000000000000000000000000000000000000000081526004016108469061217f565b60405180910390fd5b60015f8281526020019081526020015f205f6101000a81549060ff0219169055807f81b490cc4817956534ad0d9b06d6d3033d3f2a2ad9a18b8f9f5c5118f2d4a7a860405160405180910390a25050565b6108a861143f565b73ffffffffffffffffffffffffffffffffffffffff168173ffffffffffffffffffffffffffffffffffffffff1614610915576040517f08c379a000000000000000000000000000000000000000000000000000000000815260040161090c9061220d565b60405180910390fd5b61091f8282611446565b5050565b5f8082608001351161096a576040517f08c379a000000000000000000000000000000000000000000000000000000000815260040161096190612275565b60405180910390fd5b3373ffffffffffffffffffffffffffffffffffffffff16825f0160208101906109939190611b97565b73ffffffffffffffffffffffffffffffffffffffff16036109e9576040517f08c379a00000000000000000000000000000000000000000000000000000000081526004016109e090612303565b60405180910390fd5b3373ffffffffffffffffffffffffffffffffffffffff16826040016020810190610a139190611b97565b73ffffffffffffffffffffffffffffffffffffffff1614610a69576040517f08c379a0000000000000000000000000000000000000000000000000000000008152600401610a6090612391565b60405180910390fd5b5f82604051602001610a7b9190612115565b60405160208183030381529060405280519060200120905060015f8281526020019081526020015f205f9054906101000a900460ff1615610af1576040517f08c379a0000000000000000000000000000000000000000000000000000000008152600401610ae89061241f565b60405180910390fd5b6001805f8381526020019081526020015f205f6101000a81548160ff0219169083151502179055507f743e2e8bb380a875e740375952b0f4bc207de49e8d745bad8ea77f59b6b49712835f016020810190610b4c9190611b97565b846020016020810190610b5f9190611b97565b856040016020810190610b729190611b97565b868060600190610b829190612449565b8860800135604051610b99969594939291906124d7565b60405180910390a180915050919050565b5f60015f8381526020019081526020015f205f9054906101000a900460ff169050919050565b5f805f8481526020019081526020015f205f015f8373ffffffffffffffffffffffffffffffffffffffff1673ffffffffffffffffffffffffffffffffffffffff1681526020019081526020015f205f9054906101000a900460ff16905092915050565b5f801b81565b5f60025f8381526020019081526020015f205f9054906101000a900460ff169050919050565b5f81604051602001610c719190612115565b604051602081830303815290604052805190602001209050610c9281610baa565b610cd1576040517f08c379a0000000000000000000000000000000000000000000000000000000008152600401610cc89061217f565b60405180910390fd5b5f826020016020810190610ce59190611b97565b905082608001358173ffffffffffffffffffffffffffffffffffffffff1663dd62ed3e855f016020810190610d1a9190611b97565b306040518363ffffffff1660e01b8152600401610d38929190612531565b602060405180830381865afa158015610d53573d5f803e3d5ffd5b505050506040513d601f19601f82011682018060405250810190610d77919061256c565b1015610db8576040517f08c379a0000000000000000000000000000000000000000000000000000000008152600401610daf90612607565b60405180910390fd5b8073ffffffffffffffffffffffffffffffffffffffff166323b872dd845f016020810190610de69190611b97565b3086608001356040518463ffffffff1660e01b8152600401610e0a93929190612625565b6020604051808303815f875af1158015610e26573d5f803e3d5ffd5b505050506040513d601f19601f82011682018060405250810190610e4a9190612684565b610e89576040517f08c379a0000000000000000000000000000000000000000000000000000000008152600401610e80906126f9565b60405180910390fd5b60015f8381526020019081526020015f205f6101000a81549060ff02191690557f021aa3e3037a1802200efc22040b5bc9e3b460a5fac2ffe05671e52e7cbcc45b835f016020810190610edc9190611b97565b846020016020810190610eef9190611b97565b856040016020810190610f029190611b97565b868060600190610f129190612449565b8860800135604051610f29969594939291906124d7565b60405180910390a1505050565b610f3f826106ef565b610f4881611351565b610f528383611446565b505050565b7f523a704056dcd17bcf83bed8b68c59416dac1119be77755efe3bde0a64e46e0c610f8181611351565b5f82604051602001610f939190611e1a565b604051602081830303815290604052805190602001209050610fb481610c39565b610ff3576040517f08c379a0000000000000000000000000000000000000000000000000000000008152600401610fea90612761565b60405180910390fd5b5f835f0160208101906110069190611b97565b90508073ffffffffffffffffffffffffffffffffffffffff1663a9059cbb8560200160208101906110379190611b97565b86606001356040518363ffffffff1660e01b815260040161105992919061277f565b6020604051808303815f875af1158015611075573d5f803e3d5ffd5b505050506040513d601f19601f820116820180604052508101906110999190612684565b6110d8576040517f08c379a00000000000000000000000000000000000000000000000000000000081526004016110cf906126f9565b60405180910390fd5b60025f8381526020019081526020015f205f6101000a81549060ff02191690557f04eb55eb3a0bf2d7c776a5bd6aa8a9bba5d651e84dd4eac89405a29523244250845f01602081019061112b9190611b97565b85602001602081019061113e9190611b97565b8660400160208101906111519190611b97565b87606001356040516111669493929190611edf565b60405180910390a150505050565b61119e7f523a704056dcd17bcf83bed8b68c59416dac1119be77755efe3bde0a64e46e0c33610bd0565b806111e657508060400160208101906111b79190611b97565b73ffffffffffffffffffffffffffffffffffffffff163373ffffffffffffffffffffffffffffffffffffffff16145b611225576040517f08c379a000000000000000000000000000000000000000000000000000000000815260040161121c90611f92565b60405180910390fd5b5f816040516020016112379190611e1a565b60405160208183030381529060405280519060200120905061125881610c39565b611297576040517f08c379a000000000000000000000000000000000000000000000000000000000815260040161128e90612761565b60405180910390fd5b60025f8281526020019081526020015f205f6101000a81549060ff0219169055807f669df298ac9e63bcb8af79778523cb89a20a5b9b96367d7aa16e07a5edf6d45f60405160405180910390a25050565b5f7f01ffc9a7000000000000000000000000000000000000000000000000000000007bffffffffffffffffffffffffffffffffffffffffffffffffffffffff1916827bffffffffffffffffffffffffffffffffffffffffffffffffffffffff1916149050919050565b6113628161135d61143f565b611520565b50565b61136f8282610bd0565b61143b5760015f808481526020019081526020015f205f015f8373ffffffffffffffffffffffffffffffffffffffff1673ffffffffffffffffffffffffffffffffffffffff1681526020019081526020015f205f6101000a81548160ff0219169083151502179055506113e061143f565b73ffffffffffffffffffffffffffffffffffffffff168173ffffffffffffffffffffffffffffffffffffffff16837f2f8788117e7eff1d82e926ec794901d17c78024a50270940304540a733656f0d60405160405180910390a45b5050565b5f33905090565b6114508282610bd0565b1561151c575f805f8481526020019081526020015f205f015f8373ffffffffffffffffffffffffffffffffffffffff1673ffffffffffffffffffffffffffffffffffffffff1681526020019081526020015f205f6101000a81548160ff0219169083151502179055506114c161143f565b73ffffffffffffffffffffffffffffffffffffffff168173ffffffffffffffffffffffffffffffffffffffff16837ff6391f5c32d9c69d2a47ea670b442974b53935d1edc7fd64eb21e047a839171b60405160405180910390a45b5050565b61152a8282610bd0565b6115a057611537816115a4565b611544835f1c60206115d1565b6040516020016115559291906128a6565b6040516020818303038152906040526040517f08c379a00000000000000000000000000000000000000000000000000000000081526004016115979190612917565b60405180910390fd5b5050565b60606115ca8273ffffffffffffffffffffffffffffffffffffffff16601460ff166115d1565b9050919050565b60605f60028360026115e39190612964565b6115ed91906129a5565b67ffffffffffffffff811115611606576116056129d8565b5b6040519080825280601f01601f1916602001820160405280156116385781602001600182028036833780820191505090505b5090507f3000000000000000000000000000000000000000000000000000000000000000815f8151811061166f5761166e612a05565b5b60200101907effffffffffffffffffffffffffffffffffffffffffffffffffffffffffffff191690815f1a9053507f7800000000000000000000000000000000000000000000000000000000000000816001815181106116d2576116d1612a05565b5b60200101907effffffffffffffffffffffffffffffffffffffffffffffffffffffffffffff191690815f1a9053505f60018460026117109190612964565b61171a91906129a5565b90505b60018111156117b9577f3031323334353637383961626364656600000000000000000000000000000000600f86166010811061175c5761175b612a05565b5b1a60f81b82828151811061177357611772612a05565b5b60200101907effffffffffffffffffffffffffffffffffffffffffffffffffffffffffffff191690815f1a905350600485901c9450806117b290612a32565b905061171d565b505f84146117fc576040517f08c379a00000000000000000000000000000000000000000000000000000000081526004016117f390612aa3565b60405180910390fd5b8091505092915050565b5f82825260208201905092915050565b7f4574686572207061796d656e7473206e6f7420616c6c6f7765640000000000005f82015250565b5f61184a601a83611806565b915061185582611816565b602082019050919050565b5f6020820190508181035f8301526118778161183e565b9050919050565b5f80fd5b5f80fd5b5f7fffffffff0000000000000000000000000000000000000000000000000000000082169050919050565b6118ba81611886565b81146118c4575f80fd5b50565b5f813590506118d5816118b1565b92915050565b5f602082840312156118f0576118ef61187e565b5b5f6118fd848285016118c7565b91505092915050565b5f8115159050919050565b61191a81611906565b82525050565b5f6020820190506119335f830184611911565b92915050565b5f80fd5b5f6080828403121561195257611951611939565b5b81905092915050565b5f608082840312156119705761196f61187e565b5b5f61197d8482850161193d565b91505092915050565b5f819050919050565b61199881611986565b82525050565b5f6020820190506119b15f83018461198f565b92915050565b6119c081611986565b81146119ca575f80fd5b50565b5f813590506119db816119b7565b92915050565b5f602082840312156119f6576119f561187e565b5b5f611a03848285016119cd565b91505092915050565b5f73ffffffffffffffffffffffffffffffffffffffff82169050919050565b5f611a3582611a0c565b9050919050565b611a4581611a2b565b8114611a4f575f80fd5b50565b5f81359050611a6081611a3c565b92915050565b5f8060408385031215611a7c57611a7b61187e565b5b5f611a89858286016119cd565b9250506020611a9a85828601611a52565b9150509250929050565b5f60a08284031215611ab957611ab8611939565b5b81905092915050565b5f60208284031215611ad757611ad661187e565b5b5f82013567ffffffffffffffff811115611af457611af3611882565b5b611b0084828501611aa4565b91505092915050565b7f546865207769746864726177616c20616d6f756e742063616e6e6f74206265205f8201527f3000000000000000000000000000000000000000000000000000000000000000602082015250565b5f611b63602183611806565b9150611b6e82611b09565b604082019050919050565b5f6020820190508181035f830152611b9081611b57565b9050919050565b5f60208284031215611bac57611bab61187e565b5b5f611bb984828501611a52565b91505092915050565b7f546865207769746864726177616c20696e74656e74206d7573742062652073755f8201527f626d69747465642066726f6d2074686520696e69746961746f7220616464726560208201527f7373000000000000000000000000000000000000000000000000000000000000604082015250565b5f611c42604283611806565b9150611c4d82611bc2565b606082019050919050565b5f6020820190508181035f830152611c6f81611c36565b9050919050565b7f41207769746864726177616c20696e74656e742063616e6e6f742062652073755f8201527f626d69747465642066726f6d2061207769746864726177616c206f706572617460208201527f6f72000000000000000000000000000000000000000000000000000000000000604082015250565b5f611cf6604283611806565b9150611d0182611c76565b606082019050919050565b5f6020820190508181035f830152611d2381611cea565b9050919050565b5f611d386020840184611a52565b905092915050565b611d4981611a2b565b82525050565b5f819050919050565b611d6181611d4f565b8114611d6b575f80fd5b50565b5f81359050611d7c81611d58565b92915050565b5f611d906020840184611d6e565b905092915050565b611da181611d4f565b82525050565b60808201611db75f830183611d2a565b611dc35f850182611d40565b50611dd16020830183611d2a565b611dde6020850182611d40565b50611dec6040830183611d2a565b611df96040850182611d40565b50611e076060830183611d82565b611e146060850182611d98565b50505050565b5f608082019050611e2d5f830184611da7565b92915050565b7f546865207769746864726177616c20696e74656e7420796f75206172652074725f8201527f79696e6720746f207375626d697420697320616c726561647920616374697665602082015250565b5f611e8d604083611806565b9150611e9882611e33565b604082019050919050565b5f6020820190508181035f830152611eba81611e81565b9050919050565b611eca81611a2b565b82525050565b611ed981611d4f565b82525050565b5f608082019050611ef25f830187611ec1565b611eff6020830186611ec1565b611f0c6040830185611ec1565b611f196060830184611ed0565b95945050505050565b7f43616e206f6e6c792062652063616e63656c6c656420627920496e69746961745f8201527f6f72206f72204f70657261746f722e0000000000000000000000000000000000602082015250565b5f611f7c602f83611806565b9150611f8782611f22565b604082019050919050565b5f6020820190508181035f830152611fa981611f70565b9050919050565b5f80fd5b5f80fd5b5f80fd5b5f8083356001602003843603038112611fd857611fd7611fb8565b5b83810192508235915060208301925067ffffffffffffffff82111561200057611fff611fb0565b5b60018202360383131561201657612015611fb4565b5b509250929050565b5f82825260208201905092915050565b828183375f83830152505050565b5f601f19601f8301169050919050565b5f612057838561201e565b935061206483858461202e565b61206d8361203c565b840190509392505050565b5f60a083016120895f840184611d2a565b6120955f860182611d40565b506120a36020840184611d2a565b6120b06020860182611d40565b506120be6040840184611d2a565b6120cb6040860182611d40565b506120d96060840184611fbc565b85830360608701526120ec83828461204c565b925050506120fd6080840184611d82565b61210a6080860182611d98565b508091505092915050565b5f6020820190508181035f83015261212d8184612078565b905092915050565b7f4465706f73697420696e74656e74206973206e6f7420616374697665000000005f82015250565b5f612169601c83611806565b915061217482612135565b602082019050919050565b5f6020820190508181035f8301526121968161215d565b9050919050565b7f416363657373436f6e74726f6c3a2063616e206f6e6c792072656e6f756e63655f8201527f20726f6c657320666f722073656c660000000000000000000000000000000000602082015250565b5f6121f7602f83611806565b91506122028261219d565b604082019050919050565b5f6020820190508181035f830152612224816121eb565b9050919050565b7f546865206465706f73697420616d6f756e742063616e6e6f74206265203000005f82015250565b5f61225f601e83611806565b915061226a8261222b565b602082019050919050565b5f6020820190508181035f83015261228c81612253565b9050919050565b7f54686520696e74656e6465642073656e6465722063616e6e6f742062652074685f8201527f65206465706f73697420696e74656e74207375626d6974746572000000000000602082015250565b5f6122ed603a83611806565b91506122f882612293565b604082019050919050565b5f6020820190508181035f83015261231a816122e1565b9050919050565b7f54686520696e74656e646564207265636569766572206d7573742062652074685f8201527f65206465706f73697420696e74656e74207375626d6974746572000000000000602082015250565b5f61237b603a83611806565b915061238682612321565b604082019050919050565b5f6020820190508181035f8301526123a88161236f565b9050919050565b7f546865206465706f73697420696e74656e7420796f752061726520747279696e5f8201527f6720746f207375626d697420697320616c726561647920616374697665000000602082015250565b5f612409603d83611806565b9150612414826123af565b604082019050919050565b5f6020820190508181035f830152612436816123fd565b9050919050565b5f80fd5b5f80fd5b5f80fd5b5f80833560016020038436030381126124655761246461243d565b5b80840192508235915067ffffffffffffffff82111561248757612486612441565b5b6020830192506001820236038313156124a3576124a2612445565b5b509250929050565b5f6124b68385611806565b93506124c383858461202e565b6124cc8361203c565b840190509392505050565b5f60a0820190506124ea5f830189611ec1565b6124f76020830188611ec1565b6125046040830187611ec1565b81810360608301526125178185876124ab565b90506125266080830184611ed0565b979650505050505050565b5f6040820190506125445f830185611ec1565b6125516020830184611ec1565b9392505050565b5f8151905061256681611d58565b92915050565b5f602082840312156125815761258061187e565b5b5f61258e84828501612558565b91505092915050565b7f496e73756666696369656e7420616c6c6f77616e636520666f722045524332305f8201527f20746f6b656e0000000000000000000000000000000000000000000000000000602082015250565b5f6125f1602683611806565b91506125fc82612597565b604082019050919050565b5f6020820190508181035f83015261261e816125e5565b9050919050565b5f6060820190506126385f830186611ec1565b6126456020830185611ec1565b6126526040830184611ed0565b949350505050565b61266381611906565b811461266d575f80fd5b50565b5f8151905061267e8161265a565b92915050565b5f602082840312156126995761269861187e565b5b5f6126a684828501612670565b91505092915050565b7f546f6b656e207472616e73666572206661696c656400000000000000000000005f82015250565b5f6126e3601583611806565b91506126ee826126af565b602082019050919050565b5f6020820190508181035f830152612710816126d7565b9050919050565b7f5769746864726177616c20696e74656e74206973206e6f7420616374697665005f82015250565b5f61274b601f83611806565b915061275682612717565b602082019050919050565b5f6020820190508181035f8301526127788161273f565b9050919050565b5f6040820190506127925f830185611ec1565b61279f6020830184611ed0565b9392505050565b5f81905092915050565b7f416363657373436f6e74726f6c3a206163636f756e74200000000000000000005f82015250565b5f6127e46017836127a6565b91506127ef826127b0565b601782019050919050565b5f81519050919050565b5f5b83811015612821578082015181840152602081019050612806565b5f8484015250505050565b5f612836826127fa565b61284081856127a6565b9350612850818560208601612804565b80840191505092915050565b7f206973206d697373696e6720726f6c65200000000000000000000000000000005f82015250565b5f6128906011836127a6565b915061289b8261285c565b601182019050919050565b5f6128b0826127d8565b91506128bc828561282c565b91506128c782612884565b91506128d3828461282c565b91508190509392505050565b5f6128e9826127fa565b6128f38185611806565b9350612903818560208601612804565b61290c8161203c565b840191505092915050565b5f6020820190508181035f83015261292f81846128df565b905092915050565b7f4e487b71000000000000000000000000000000000000000000000000000000005f52601160045260245ffd5b5f61296e82611d4f565b915061297983611d4f565b925082820261298781611d4f565b9150828204841483151761299e5761299d612937565b5b5092915050565b5f6129af82611d4f565b91506129ba83611d4f565b92508282019050808211156129d2576129d1612937565b5b92915050565b7f4e487b71000000000000000000000000000000000000000000000000000000005f52604160045260245ffd5b7f4e487b71000000000000000000000000000000000000000000000000000000005f52603260045260245ffd5b5f612a3c82611d4f565b91505f8203612a4e57612a4d612937565b5b600182039050919050565b7f537472696e67733a20686578206c656e67746820696e73756666696369656e745f82015250565b5f612a8d602083611806565b9150612a9882612a59565b602082019050919050565b5f6020820190508181035f830152612aba81612a81565b905091905056fea2646970667358221220f44959f14c4d8e3fa4850b4ea80277c150f295b7127e1c4d51924fb13bb68f8e64736f6c63430008140033",
  "linkReferences": {},
  "deployedLinkReferences": {}
}