{"contracts/DigitalSecuritiesVault.sol":{"DigitalSecuritiesVault":{"abi":[{"inputs":[],"stateMutability":"nonpayable","type":"constructor"},{"anonymous":false,"inputs":[{"indexed":true,"internalType":"bytes32","name":"intentHash","type":"bytes32"}],"name":"DepositIntentCancelled","type":"event"},{"anonymous":false,"inputs":[{"indexed":false,"internalType":"address","name":"sender","type":"address"},{"indexed":false,"internalType":"address","name":"tokenAddress","type":"address"},{"indexed":false,"internalType":"address","name":"receiverAddress","type":"address"},{"indexed":false,"internalType":"string","name":"receiverId","type":"string"},{"indexed":false,"internalType":"uint256","name":"amount","type":"uint256"}],"name":"DepositIntentSatisfied","type":"event"},{"anonymous":false,"inputs":[{"indexed":false,"internalType":"address","name":"sender","type":"address"},{"indexed":false,"internalType":"address","name":"tokenAddress","type":"address"},{"indexed":false,"internalType":"address","name":"receiverAddress","type":"address"},{"indexed":false,"internalType":"string","name":"receiverId","type":"string"},{"indexed":false,"internalType":"uint256","name":"amount","type":"uint256"}],"name":"DepositIntentSubmitted","type":"event"},{"anonymous":false,"inputs":[{"indexed":true,"internalType":"bytes32","name":"role","type":"bytes32"},{"indexed":true,"internalType":"bytes32","name":"previousAdminRole","type":"bytes32"},{"indexed":true,"internalType":"bytes32","name":"newAdminRole","type":"bytes32"}],"name":"RoleAdminChanged","type":"event"},{"anonymous":false,"inputs":[{"indexed":true,"internalType":"bytes32","name":"role","type":"bytes32"},{"indexed":true,"internalType":"address","name":"account","type":"address"},{"indexed":true,"internalType":"address","name":"sender","type":"address"}],"name":"RoleGranted","type":"event"},{"anonymous":false,"inputs":[{"indexed":true,"internalType":"bytes32","name":"role","type":"bytes32"},{"indexed":true,"internalType":"address","name":"account","type":"address"},{"indexed":true,"internalType":"address","name":"sender","type":"address"}],"name":"RoleRevoked","type":"event"},{"anonymous":false,"inputs":[{"indexed":true,"internalType":"bytes32","name":"intentHash","type":"bytes32"}],"name":"WithdrawalIntentCancelled","type":"event"},{"anonymous":false,"inputs":[{"indexed":false,"internalType":"address","name":"tokenAddress","type":"address"},{"indexed":false,"internalType":"address","name":"withdrawalAddress","type":"address"},{"indexed":false,"internalType":"address","name":"initiatorAddress","type":"address"},{"indexed":false,"internalType":"uint256","name":"amount","type":"uint256"}],"name":"WithdrawalIntentConfirmed","type":"event"},{"anonymous":false,"inputs":[{"indexed":false,"internalType":"address","name":"tokenAddress","type":"address"},{"indexed":false,"internalType":"address","name":"withdrawalAddress","type":"address"},{"indexed":false,"internalType":"address","name":"initiatorAddress","type":"address"},{"indexed":false,"internalType":"uint256","name":"amount","type":"uint256"}],"name":"WithdrawalIntentSubmitted","type":"event"},{"inputs":[],"name":"DEFAULT_ADMIN_ROLE","outputs":[{"internalType":"bytes32","name":"","type":"bytes32"}],"stateMutability":"view","type":"function"},{"inputs":[{"components":[{"internalType":"address","name":"sender","type":"address"},{"internalType":"address","name":"tokenAddress","type":"address"},{"internalType":"address","name":"initiatorAddress","type":"address"},{"internalType":"string","name":"receiverId","type":"string"},{"internalType":"uint256","name":"amount","type":"uint256"}],"internalType":"struct DigitalSecuritiesVault.DepositIntent","name":"depositIntent","type":"tuple"}],"name":"cancelDepositIntent","outputs":[],"stateMutability":"nonpayable","type":"function"},{"inputs":[{"components":[{"internalType":"address","name":"tokenAddress","type":"address"},{"internalType":"address","name":"withdrawalAddress","type":"address"},{"internalType":"address","name":"initiatorAddress","type":"address"},{"internalType":"uint256","name":"amount","type":"uint256"}],"internalType":"struct DigitalSecuritiesVault.WithdrawalIntent","name":"withdrawalIntent","type":"tuple"}],"name":"cancelWithdrawalIntent","outputs":[],"stateMutability":"nonpayable","type":"function"},{"inputs":[{"components":[{"internalType":"address","name":"tokenAddress","type":"address"},{"internalType":"address","name":"withdrawalAddress","type":"address"},{"internalType":"address","name":"initiatorAddress","type":"address"},{"internalType":"uint256","name":"amount","type":"uint256"}],"internalType":"struct DigitalSecuritiesVault.WithdrawalIntent","name":"withdrawalIntent","type":"tuple"}],"name":"confirmWithdrawalIntent","outputs":[],"stateMutability":"nonpayable","type":"function"},{"inputs":[{"internalType":"bytes32","name":"role","type":"bytes32"}],"name":"getRoleAdmin","outputs":[{"internalType":"bytes32","name":"","type":"bytes32"}],"stateMutability":"view","type":"function"},{"inputs":[{"internalType":"bytes32","name":"role","type":"bytes32"},{"internalType":"address","name":"account","type":"address"}],"name":"grantRole","outputs":[],"stateMutability":"nonpayable","type":"function"},{"inputs":[{"internalType":"bytes32","name":"role","type":"bytes32"},{"internalType":"address","name":"account","type":"address"}],"name":"hasRole","outputs":[{"internalType":"bool","name":"","type":"bool"}],"stateMutability":"view","type":"function"},{"inputs":[{"internalType":"bytes32","name":"intentHash","type":"bytes32"}],"name":"isDepositIntentActive","outputs":[{"internalType":"bool","name":"","type":"bool"}],"stateMutability":"view","type":"function"},{"inputs":[{"internalType":"bytes32","name":"intentHash","type":"bytes32"}],"name":"isWithdrawalIntentActive","outputs":[{"internalType":"bool","name":"","type":"bool"}],"stateMutability":"view","type":"function"},{"inputs":[{"internalType":"bytes32","name":"role","type":"bytes32"},{"internalType":"address","name":"account","type":"address"}],"name":"renounceRole","outputs":[],"stateMutability":"nonpayable","type":"function"},{"inputs":[{"internalType":"bytes32","name":"role","type":"bytes32"},{"internalType":"address","name":"account","type":"address"}],"name":"revokeRole","outputs":[],"stateMutability":"nonpayable","type":"function"},{"inputs":[{"components":[{"internalType":"address","name":"sender","type":"address"},{"internalType":"address","name":"tokenAddress","type":"address"},{"internalType":"address","name":"initiatorAddress","type":"address"},{"internalType":"string","name":"receiverId","type":"string"},{"internalType":"uint256","name":"amount","type":"uint256"}],"internalType":"struct DigitalSecuritiesVault.DepositIntent","name":"depositIntent","type":"tuple"}],"name":"satisfyDepositIntent","outputs":[],"stateMutability":"nonpayable","type":"function"},{"inputs":[{"components":[{"internalType":"address","name":"sender","type":"address"},{"internalType":"address","name":"tokenAddress","type":"address"},{"internalType":"address","name":"initiatorAddress","type":"address"},{"internalType":"string","name":"receiverId","type":"string"},{"internalType":"uint256","name":"amount","type":"uint256"}],"internalType":"struct DigitalSecuritiesVault.DepositIntent","name":"depositIntent","type":"tuple"}],"name":"submitDepositIntent","outputs":[{"internalType":"bytes32","name":"","type":"bytes32"}],"stateMutability":"nonpayable","type":"function"},{"inputs":[{"components":[{"internalType":"address","name":"tokenAddress","type":"address"},{"internalType":"address","name":"withdrawalAddress","type":"address"},{"internalType":"address","name":"initiatorAddress","type":"address"},{"internalType":"uint256","name":"amount","type":"uint256"}],"internalType":"struct DigitalSecuritiesVault.WithdrawalIntent","name":"withdrawalIntent","type":"tuple"}],"name":"submitWithdrawalIntent","outputs":[{"internalType":"bytes32","name":"","type":"bytes32"}],"stateMutability":"nonpayable","type":"function"},{"inputs":[{"internalType":"bytes4","name":"interfaceId","type":"bytes4"}],"name":"supportsInterface","outputs":[{"internalType":"bool","name":"","type":"bool"}],"stateMutability":"view","type":"function"},{"stateMutability":"payable","type":"receive"}],"evm":{"bytecode":{"linkReferences":{},"object":"608060405234801562000010575f80fd5b50620000255f801b336200002b60201b60201c565b62000180565b6200003d82826200011660201b60201c565b620001125760015f808481526020019081526020015f205f015f8373ffffffffffffffffffffffffffffffffffffffff1673ffffffffffffffffffffffffffffffffffffffff1681526020019081526020015f205f6101000a81548160ff021916908315150217905550620000b76200017960201b60201c565b73ffffffffffffffffffffffffffffffffffffffff168173ffffffffffffffffffffffffffffffffffffffff16837f2f8788117e7eff1d82e926ec794901d17c78024a50270940304540a733656f0d60405160405180910390a45b5050565b5f805f8481526020019081526020015f205f015f8373ffffffffffffffffffffffffffffffffffffffff1673ffffffffffffffffffffffffffffffffffffffff1681526020019081526020015f205f9054906101000a900460ff16905092915050565b5f33905090565b612af7806200018e5f395ff3fe6080604052600436106100eb575f3560e01c80637d58208511610089578063c816da8811610058578063c816da8814610375578063d547741f1461039d578063ef52954c146103c5578063ffa35996146103ed5761012b565b80637d5820851461029757806391d14854146102d3578063a217fddf1461030f578063a9f34983146103395761012b565b80632f2ff15d116100c55780632f2ff15d146101e35780633210671e1461020b57806336568abe146102335780637526d2701461025b5761012b565b806301ffc9a71461012f5780631ac50a481461016b578063248a9ca3146101a75761012b565b3661012b576040517f08c379a000000000000000000000000000000000000000000000000000000000815260040161012290611860565b60405180910390fd5b5f80fd5b34801561013a575f80fd5b50610155600480360381019061015091906118db565b610415565b6040516101629190611920565b60405180910390f35b348015610176575f80fd5b50610191600480360381019061018c919061195b565b61048e565b60405161019e919061199e565b60405180910390f35b3480156101b2575f80fd5b506101cd60048036038101906101c891906119e1565b6106ef565b6040516101da919061199e565b60405180910390f35b3480156101ee575f80fd5b5061020960048036038101906102049190611a66565b61070b565b005b348015610216575f80fd5b50610231600480360381019061022c9190611ac2565b61072c565b005b34801561023e575f80fd5b5061025960048036038101906102549190611a66565b6108a0565b005b348015610266575f80fd5b50610281600480360381019061027c9190611ac2565b610923565b60405161028e919061199e565b60405180910390f35b3480156102a2575f80fd5b506102bd60048036038101906102b891906119e1565b610baa565b6040516102ca9190611920565b60405180910390f35b3480156102de575f80fd5b506102f960048036038101906102f49190611a66565b610bd0565b6040516103069190611920565b60405180910390f35b34801561031a575f80fd5b50610323610c33565b604051610330919061199e565b60405180910390f35b348015610344575f80fd5b5061035f600480360381019061035a91906119e1565b610c39565b60405161036c9190611920565b60405180910390f35b348015610380575f80fd5b5061039b60048036038101906103969190611ac2565b610c5f565b005b3480156103a8575f80fd5b506103c360048036038101906103be9190611a66565b610f36565b005b3480156103d0575f80fd5b506103eb60048036038101906103e6919061195b565b610f57565b005b3480156103f8575f80fd5b50610413600480360381019061040e919061195b565b611174565b005b5f7f7965db0b000000000000000000000000000000000000000000000000000000007bffffffffffffffffffffffffffffffffffffffffffffffffffffffff1916827bffffffffffffffffffffffffffffffffffffffffffffffffffffffff191614806104875750610486826112e8565b5b9050919050565b5f808260600135116104d5576040517f08c379a00000000000000000000000000000000000000000000000000000000081526004016104cc90611b79565b60405180910390fd5b3373ffffffffffffffffffffffffffffffffffffffff168260400160208101906104ff9190611b97565b73ffffffffffffffffffffffffffffffffffffffff1614610555576040517f08c379a000000000000000000000000000000000000000000000000000000000815260040161054c90611c58565b60405180910390fd5b61057f7f523a704056dcd17bcf83bed8b68c59416dac1119be77755efe3bde0a64e46e0c33610bd0565b156105bf576040517f08c379a00000000000000000000000000000000000000000000000000000000081526004016105b690611d0c565b60405180910390fd5b5f826040516020016105d19190611e1a565b60405160208183030381529060405280519060200120905060025f8281526020019081526020015f205f9054906101000a900460ff1615610647576040517f08c379a000000000000000000000000000000000000000000000000000000000815260040161063e90611ea3565b60405180910390fd5b600160025f8381526020019081526020015f205f6101000a81548160ff0219169083151502179055507f45c8709ee8c39c83c2c283a9778b3c6f98d4d0d48462a928f8befeb3b8bc092d835f0160208101906106a39190611b97565b8460200160208101906106b69190611b97565b8560400160208101906106c99190611b97565b86606001356040516106de9493929190611edf565b60405180910390a180915050919050565b5f805f8381526020019081526020015f20600101549050919050565b610714826106ef565b61071d81611351565b6107278383611365565b505050565b6107567f523a704056dcd17bcf83bed8b68c59416dac1119be77755efe3bde0a64e46e0c33610bd0565b8061079e575080604001602081019061076f9190611b97565b73ffffffffffffffffffffffffffffffffffffffff163373ffffffffffffffffffffffffffffffffffffffff16145b6107dd576040517f08c379a00000000000000000000000000000000000000000000000000000000081526004016107d490611f92565b60405180910390fd5b5f816040516020016107ef9190612115565b60405160208183030381529060405280519060200120905061081081610baa565b61084f576040517f08c379a00000000000000000000000000000000000000000000000000000000081526004016108469061217f565b60405180910390fd5b60015f8281526020019081526020015f205f6101000a81549060ff0219169055807f81b490cc4817956534ad0d9b06d6d3033d3f2a2ad9a18b8f9f5c5118f2d4a7a860405160405180910390a25050565b6108a861143f565b73ffffffffffffffffffffffffffffffffffffffff168173ffffffffffffffffffffffffffffffffffffffff1614610915576040517f08c379a000000000000000000000000000000000000000000000000000000000815260040161090c9061220d565b60405180910390fd5b61091f8282611446565b5050565b5f8082608001351161096a576040517f08c379a000000000000000000000000000000000000000000000000000000000815260040161096190612275565b60405180910390fd5b3373ffffffffffffffffffffffffffffffffffffffff16825f0160208101906109939190611b97565b73ffffffffffffffffffffffffffffffffffffffff16036109e9576040517f08c379a00000000000000000000000000000000000000000000000000000000081526004016109e090612303565b60405180910390fd5b3373ffffffffffffffffffffffffffffffffffffffff16826040016020810190610a139190611b97565b73ffffffffffffffffffffffffffffffffffffffff1614610a69576040517f08c379a0000000000000000000000000000000000000000000000000000000008152600401610a6090612391565b60405180910390fd5b5f82604051602001610a7b9190612115565b60405160208183030381529060405280519060200120905060015f8281526020019081526020015f205f9054906101000a900460ff1615610af1576040517f08c379a0000000000000000000000000000000000000000000000000000000008152600401610ae89061241f565b60405180910390fd5b6001805f8381526020019081526020015f205f6101000a81548160ff0219169083151502179055507f743e2e8bb380a875e740375952b0f4bc207de49e8d745bad8ea77f59b6b49712835f016020810190610b4c9190611b97565b846020016020810190610b5f9190611b97565b856040016020810190610b729190611b97565b868060600190610b829190612449565b8860800135604051610b99969594939291906124d7565b60405180910390a180915050919050565b5f60015f8381526020019081526020015f205f9054906101000a900460ff169050919050565b5f805f8481526020019081526020015f205f015f8373ffffffffffffffffffffffffffffffffffffffff1673ffffffffffffffffffffffffffffffffffffffff1681526020019081526020015f205f9054906101000a900460ff16905092915050565b5f801b81565b5f60025f8381526020019081526020015f205f9054906101000a900460ff169050919050565b5f81604051602001610c719190612115565b604051602081830303815290604052805190602001209050610c9281610baa565b610cd1576040517f08c379a0000000000000000000000000000000000000000000000000000000008152600401610cc89061217f565b60405180910390fd5b5f826020016020810190610ce59190611b97565b905082608001358173ffffffffffffffffffffffffffffffffffffffff1663dd62ed3e855f016020810190610d1a9190611b97565b306040518363ffffffff1660e01b8152600401610d38929190612531565b602060405180830381865afa158015610d53573d5f803e3d5ffd5b505050506040513d601f19601f82011682018060405250810190610d77919061256c565b1015610db8576040517f08c379a0000000000000000000000000000000000000000000000000000000008152600401610daf90612607565b60405180910390fd5b8073ffffffffffffffffffffffffffffffffffffffff166323b872dd845f016020810190610de69190611b97565b3086608001356040518463ffffffff1660e01b8152600401610e0a93929190612625565b6020604051808303815f875af1158015610e26573d5f803e3d5ffd5b505050506040513d601f19601f82011682018060405250810190610e4a9190612684565b610e89576040517f08c379a0000000000000000000000000000000000000000000000000000000008152600401610e80906126f9565b60405180910390fd5b60015f8381526020019081526020015f205f6101000a81549060ff02191690557f021aa3e3037a1802200efc22040b5bc9e3b460a5fac2ffe05671e52e7cbcc45b835f016020810190610edc9190611b97565b846020016020810190610eef9190611b97565b856040016020810190610f029190611b97565b868060600190610f129190612449565b8860800135604051610f29969594939291906124d7565b60405180910390a1505050565b610f3f826106ef565b610f4881611351565b610f528383611446565b505050565b7f523a704056dcd17bcf83bed8b68c59416dac1119be77755efe3bde0a64e46e0c610f8181611351565b5f82604051602001610f939190611e1a565b604051602081830303815290604052805190602001209050610fb481610c39565b610ff3576040517f08c379a0000000000000000000000000000000000000000000000000000000008152600401610fea90612761565b60405180910390fd5b5f835f0160208101906110069190611b97565b90508073ffffffffffffffffffffffffffffffffffffffff1663a9059cbb8560200160208101906110379190611b97565b86606001356040518363ffffffff1660e01b815260040161105992919061277f565b6020604051808303815f875af1158015611075573d5f803e3d5ffd5b505050506040513d601f19601f820116820180604052508101906110999190612684565b6110d8576040517f08c379a00000000000000000000000000000000000000000000000000000000081526004016110cf906126f9565b60405180910390fd5b60025f8381526020019081526020015f205f6101000a81549060ff02191690557f04eb55eb3a0bf2d7c776a5bd6aa8a9bba5d651e84dd4eac89405a29523244250845f01602081019061112b9190611b97565b85602001602081019061113e9190611b97565b8660400160208101906111519190611b97565b87606001356040516111669493929190611edf565b60405180910390a150505050565b61119e7f523a704056dcd17bcf83bed8b68c59416dac1119be77755efe3bde0a64e46e0c33610bd0565b806111e657508060400160208101906111b79190611b97565b73ffffffffffffffffffffffffffffffffffffffff163373ffffffffffffffffffffffffffffffffffffffff16145b611225576040517f08c379a000000000000000000000000000000000000000000000000000000000815260040161121c90611f92565b60405180910390fd5b5f816040516020016112379190611e1a565b60405160208183030381529060405280519060200120905061125881610c39565b611297576040517f08c379a000000000000000000000000000000000000000000000000000000000815260040161128e90612761565b60405180910390fd5b60025f8281526020019081526020015f205f6101000a81549060ff0219169055807f669df298ac9e63bcb8af79778523cb89a20a5b9b96367d7aa16e07a5edf6d45f60405160405180910390a25050565b5f7f01ffc9a7000000000000000000000000000000000000000000000000000000007bffffffffffffffffffffffffffffffffffffffffffffffffffffffff1916827bffffffffffffffffffffffffffffffffffffffffffffffffffffffff1916149050919050565b6113628161135d61143f565b611520565b50565b61136f8282610bd0565b61143b5760015f808481526020019081526020015f205f015f8373ffffffffffffffffffffffffffffffffffffffff1673ffffffffffffffffffffffffffffffffffffffff1681526020019081526020015f205f6101000a81548160ff0219169083151502179055506113e061143f565b73ffffffffffffffffffffffffffffffffffffffff168173ffffffffffffffffffffffffffffffffffffffff16837f2f8788117e7eff1d82e926ec794901d17c78024a50270940304540a733656f0d60405160405180910390a45b5050565b5f33905090565b6114508282610bd0565b1561151c575f805f8481526020019081526020015f205f015f8373ffffffffffffffffffffffffffffffffffffffff1673ffffffffffffffffffffffffffffffffffffffff1681526020019081526020015f205f6101000a81548160ff0219169083151502179055506114c161143f565b73ffffffffffffffffffffffffffffffffffffffff168173ffffffffffffffffffffffffffffffffffffffff16837ff6391f5c32d9c69d2a47ea670b442974b53935d1edc7fd64eb21e047a839171b60405160405180910390a45b5050565b61152a8282610bd0565b6115a057611537816115a4565b611544835f1c60206115d1565b6040516020016115559291906128a6565b6040516020818303038152906040526040517f08c379a00000000000000000000000000000000000000000000000000000000081526004016115979190612917565b60405180910390fd5b5050565b60606115ca8273ffffffffffffffffffffffffffffffffffffffff16601460ff166115d1565b9050919050565b60605f60028360026115e39190612964565b6115ed91906129a5565b67ffffffffffffffff811115611606576116056129d8565b5b6040519080825280601f01601f1916602001820160405280156116385781602001600182028036833780820191505090505b5090507f3000000000000000000000000000000000000000000000000000000000000000815f8151811061166f5761166e612a05565b5b60200101907effffffffffffffffffffffffffffffffffffffffffffffffffffffffffffff191690815f1a9053507f7800000000000000000000000000000000000000000000000000000000000000816001815181106116d2576116d1612a05565b5b60200101907effffffffffffffffffffffffffffffffffffffffffffffffffffffffffffff191690815f1a9053505f60018460026117109190612964565b61171a91906129a5565b90505b60018111156117b9577f3031323334353637383961626364656600000000000000000000000000000000600f86166010811061175c5761175b612a05565b5b1a60f81b82828151811061177357611772612a05565b5b60200101907effffffffffffffffffffffffffffffffffffffffffffffffffffffffffffff191690815f1a905350600485901c9450806117b290612a32565b905061171d565b505f84146117fc576040517f08c379a00000000000000000000000000000000000000000000000000000000081526004016117f390612aa3565b60405180910390fd5b8091505092915050565b5f82825260208201905092915050565b7f4574686572207061796d656e7473206e6f7420616c6c6f7765640000000000005f82015250565b5f61184a601a83611806565b915061185582611816565b602082019050919050565b5f6020820190508181035f8301526118778161183e565b9050919050565b5f80fd5b5f80fd5b5f7fffffffff0000000000000000000000000000000000000000000000000000000082169050919050565b6118ba81611886565b81146118c4575f80fd5b50565b5f813590506118d5816118b1565b92915050565b5f602082840312156118f0576118ef61187e565b5b5f6118fd848285016118c7565b91505092915050565b5f8115159050919050565b61191a81611906565b82525050565b5f6020820190506119335f830184611911565b92915050565b5f80fd5b5f6080828403121561195257611951611939565b5b81905092915050565b5f608082840312156119705761196f61187e565b5b5f61197d8482850161193d565b91505092915050565b5f819050919050565b61199881611986565b82525050565b5f6020820190506119b15f83018461198f565b92915050565b6119c081611986565b81146119ca575f80fd5b50565b5f813590506119db816119b7565b92915050565b5f602082840312156119f6576119f561187e565b5b5f611a03848285016119cd565b91505092915050565b5f73ffffffffffffffffffffffffffffffffffffffff82169050919050565b5f611a3582611a0c565b9050919050565b611a4581611a2b565b8114611a4f575f80fd5b50565b5f81359050611a6081611a3c565b92915050565b5f8060408385031215611a7c57611a7b61187e565b5b5f611a89858286016119cd565b9250506020611a9a85828601611a52565b9150509250929050565b5f60a08284031215611ab957611ab8611939565b5b81905092915050565b5f60208284031215611ad757611ad661187e565b5b5f82013567ffffffffffffffff811115611af457611af3611882565b5b611b0084828501611aa4565b91505092915050565b7f546865207769746864726177616c20616d6f756e742063616e6e6f74206265205f8201527f3000000000000000000000000000000000000000000000000000000000000000602082015250565b5f611b63602183611806565b9150611b6e82611b09565b604082019050919050565b5f6020820190508181035f830152611b9081611b57565b9050919050565b5f60208284031215611bac57611bab61187e565b5b5f611bb984828501611a52565b91505092915050565b7f546865207769746864726177616c20696e74656e74206d7573742062652073755f8201527f626d69747465642066726f6d2074686520696e69746961746f7220616464726560208201527f7373000000000000000000000000000000000000000000000000000000000000604082015250565b5f611c42604283611806565b9150611c4d82611bc2565b606082019050919050565b5f6020820190508181035f830152611c6f81611c36565b9050919050565b7f41207769746864726177616c20696e74656e742063616e6e6f742062652073755f8201527f626d69747465642066726f6d2061207769746864726177616c206f706572617460208201527f6f72000000000000000000000000000000000000000000000000000000000000604082015250565b5f611cf6604283611806565b9150611d0182611c76565b606082019050919050565b5f6020820190508181035f830152611d2381611cea565b9050919050565b5f611d386020840184611a52565b905092915050565b611d4981611a2b565b82525050565b5f819050919050565b611d6181611d4f565b8114611d6b575f80fd5b50565b5f81359050611d7c81611d58565b92915050565b5f611d906020840184611d6e565b905092915050565b611da181611d4f565b82525050565b60808201611db75f830183611d2a565b611dc35f850182611d40565b50611dd16020830183611d2a565b611dde6020850182611d40565b50611dec6040830183611d2a565b611df96040850182611d40565b50611e076060830183611d82565b611e146060850182611d98565b50505050565b5f608082019050611e2d5f830184611da7565b92915050565b7f546865207769746864726177616c20696e74656e7420796f75206172652074725f8201527f79696e6720746f207375626d697420697320616c726561647920616374697665602082015250565b5f611e8d604083611806565b9150611e9882611e33565b604082019050919050565b5f6020820190508181035f830152611eba81611e81565b9050919050565b611eca81611a2b565b82525050565b611ed981611d4f565b82525050565b5f608082019050611ef25f830187611ec1565b611eff6020830186611ec1565b611f0c6040830185611ec1565b611f196060830184611ed0565b95945050505050565b7f43616e206f6e6c792062652063616e63656c6c656420627920496e69746961745f8201527f6f72206f72204f70657261746f722e0000000000000000000000000000000000602082015250565b5f611f7c602f83611806565b9150611f8782611f22565b604082019050919050565b5f6020820190508181035f830152611fa981611f70565b9050919050565b5f80fd5b5f80fd5b5f80fd5b5f8083356001602003843603038112611fd857611fd7611fb8565b5b83810192508235915060208301925067ffffffffffffffff82111561200057611fff611fb0565b5b60018202360383131561201657612015611fb4565b5b509250929050565b5f82825260208201905092915050565b828183375f83830152505050565b5f601f19601f8301169050919050565b5f612057838561201e565b935061206483858461202e565b61206d8361203c565b840190509392505050565b5f60a083016120895f840184611d2a565b6120955f860182611d40565b506120a36020840184611d2a565b6120b06020860182611d40565b506120be6040840184611d2a565b6120cb6040860182611d40565b506120d96060840184611fbc565b85830360608701526120ec83828461204c565b925050506120fd6080840184611d82565b61210a6080860182611d98565b508091505092915050565b5f6020820190508181035f83015261212d8184612078565b905092915050565b7f4465706f73697420696e74656e74206973206e6f7420616374697665000000005f82015250565b5f612169601c83611806565b915061217482612135565b602082019050919050565b5f6020820190508181035f8301526121968161215d565b9050919050565b7f416363657373436f6e74726f6c3a2063616e206f6e6c792072656e6f756e63655f8201527f20726f6c657320666f722073656c660000000000000000000000000000000000602082015250565b5f6121f7602f83611806565b91506122028261219d565b604082019050919050565b5f6020820190508181035f830152612224816121eb565b9050919050565b7f546865206465706f73697420616d6f756e742063616e6e6f74206265203000005f82015250565b5f61225f601e83611806565b915061226a8261222b565b602082019050919050565b5f6020820190508181035f83015261228c81612253565b9050919050565b7f54686520696e74656e6465642073656e6465722063616e6e6f742062652074685f8201527f65206465706f73697420696e74656e74207375626d6974746572000000000000602082015250565b5f6122ed603a83611806565b91506122f882612293565b604082019050919050565b5f6020820190508181035f83015261231a816122e1565b9050919050565b7f54686520696e74656e646564207265636569766572206d7573742062652074685f8201527f65206465706f73697420696e74656e74207375626d6974746572000000000000602082015250565b5f61237b603a83611806565b915061238682612321565b604082019050919050565b5f6020820190508181035f8301526123a88161236f565b9050919050565b7f546865206465706f73697420696e74656e7420796f752061726520747279696e5f8201527f6720746f207375626d697420697320616c726561647920616374697665000000602082015250565b5f612409603d83611806565b9150612414826123af565b604082019050919050565b5f6020820190508181035f830152612436816123fd565b9050919050565b5f80fd5b5f80fd5b5f80fd5b5f80833560016020038436030381126124655761246461243d565b5b80840192508235915067ffffffffffffffff82111561248757612486612441565b5b6020830192506001820236038313156124a3576124a2612445565b5b509250929050565b5f6124b68385611806565b93506124c383858461202e565b6124cc8361203c565b840190509392505050565b5f60a0820190506124ea5f830189611ec1565b6124f76020830188611ec1565b6125046040830187611ec1565b81810360608301526125178185876124ab565b90506125266080830184611ed0565b979650505050505050565b5f6040820190506125445f830185611ec1565b6125516020830184611ec1565b9392505050565b5f8151905061256681611d58565b92915050565b5f602082840312156125815761258061187e565b5b5f61258e84828501612558565b91505092915050565b7f496e73756666696369656e7420616c6c6f77616e636520666f722045524332305f8201527f20746f6b656e0000000000000000000000000000000000000000000000000000602082015250565b5f6125f1602683611806565b91506125fc82612597565b604082019050919050565b5f6020820190508181035f83015261261e816125e5565b9050919050565b5f6060820190506126385f830186611ec1565b6126456020830185611ec1565b6126526040830184611ed0565b949350505050565b61266381611906565b811461266d575f80fd5b50565b5f8151905061267e8161265a565b92915050565b5f602082840312156126995761269861187e565b5b5f6126a684828501612670565b91505092915050565b7f546f6b656e207472616e73666572206661696c656400000000000000000000005f82015250565b5f6126e3601583611806565b91506126ee826126af565b602082019050919050565b5f6020820190508181035f830152612710816126d7565b9050919050565b7f5769746864726177616c20696e74656e74206973206e6f7420616374697665005f82015250565b5f61274b601f83611806565b915061275682612717565b602082019050919050565b5f6020820190508181035f8301526127788161273f565b9050919050565b5f6040820190506127925f830185611ec1565b61279f6020830184611ed0565b9392505050565b5f81905092915050565b7f416363657373436f6e74726f6c3a206163636f756e74200000000000000000005f82015250565b5f6127e46017836127a6565b91506127ef826127b0565b601782019050919050565b5f81519050919050565b5f5b83811015612821578082015181840152602081019050612806565b5f8484015250505050565b5f612836826127fa565b61284081856127a6565b9350612850818560208601612804565b80840191505092915050565b7f206973206d697373696e6720726f6c65200000000000000000000000000000005f82015250565b5f6128906011836127a6565b915061289b8261285c565b601182019050919050565b5f6128b0826127d8565b91506128bc828561282c565b91506128c782612884565b91506128d3828461282c565b91508190509392505050565b5f6128e9826127fa565b6128f38185611806565b9350612903818560208601612804565b61290c8161203c565b840191505092915050565b5f6020820190508181035f83015261292f81846128df565b905092915050565b7f4e487b71000000000000000000000000000000000000000000000000000000005f52601160045260245ffd5b5f61296e82611d4f565b915061297983611d4f565b925082820261298781611d4f565b9150828204841483151761299e5761299d612937565b5b5092915050565b5f6129af82611d4f565b91506129ba83611d4f565b92508282019050808211156129d2576129d1612937565b5b92915050565b7f4e487b71000000000000000000000000000000000000000000000000000000005f52604160045260245ffd5b7f4e487b71000000000000000000000000000000000000000000000000000000005f52603260045260245ffd5b5f612a3c82611d4f565b91505f8203612a4e57612a4d612937565b5b600182039050919050565b7f537472696e67733a20686578206c656e67746820696e73756666696369656e745f82015250565b5f612a8d602083611806565b9150612a9882612a59565b602082019050919050565b5f6020820190508181035f830152612aba81612a81565b905091905056fea2646970667358221220f44959f14c4d8e3fa4850b4ea80277c150f295b7127e1c4d51924fb13bb68f8e64736f6c63430008140033","opcodes":"PUSH1 0x80 PUSH1 0x40 MSTORE CALLVALUE DUP1 ISZERO PUSH3 0x10 JUMPI PUSH0 DUP1 REVERT JUMPDEST POP PUSH3 0x25 PUSH0 DUP1 SHL CALLER PUSH3 0x2B PUSH1 0x20 SHL PUSH1 0x20 SHR JUMP JUMPDEST PUSH3 0x180 JUMP JUMPDEST PUSH3 0x3D DUP3 DUP3 PUSH3 0x116 PUSH1 0x20 SHL PUSH1 0x20 SHR JUMP JUMPDEST PUSH3 0x112 JUMPI PUSH1 0x1 PUSH0 DUP1 DUP5 DUP2 MSTORE PUSH1 0x20 ADD SWAP1 DUP2 MSTORE PUSH1 0x20 ADD PUSH0 KECCAK256 PUSH0 ADD PUSH0 DUP4 PUSH20 0xFFFFFFFFFFFFFFFFFFFFFFFFFFFFFFFFFFFFFFFF AND PUSH20 0xFFFFFFFFFFFFFFFFFFFFFFFFFFFFFFFFFFFFFFFF AND DUP2 MSTORE PUSH1 0x20 ADD SWAP1 DUP2 MSTORE PUSH1 0x20 ADD PUSH0 KECCAK256 PUSH0 PUSH2 0x100 EXP DUP2 SLOAD DUP2 PUSH1 0xFF MUL NOT AND SWAP1 DUP4 ISZERO ISZERO MUL OR SWAP1 SSTORE POP PUSH3 0xB7 PUSH3 0x179 PUSH1 0x20 SHL PUSH1 0x20 SHR JUMP JUMPDEST PUSH20 0xFFFFFFFFFFFFFFFFFFFFFFFFFFFFFFFFFFFFFFFF AND DUP2 PUSH20 0xFFFFFFFFFFFFFFFFFFFFFFFFFFFFFFFFFFFFFFFF AND DUP4 PUSH32 0x2F8788117E7EFF1D82E926EC794901D17C78024A50270940304540A733656F0D PUSH1 0x40 MLOAD PUSH1 0x40 MLOAD DUP1 SWAP2 SUB SWAP1 LOG4 JUMPDEST POP POP JUMP JUMPDEST PUSH0 DUP1 PUSH0 DUP5 DUP2 MSTORE PUSH1 0x20 ADD SWAP1 DUP2 MSTORE PUSH1 0x20 ADD PUSH0 KECCAK256 PUSH0 ADD PUSH0 DUP4 PUSH20 0xFFFFFFFFFFFFFFFFFFFFFFFFFFFFFFFFFFFFFFFF AND PUSH20 0xFFFFFFFFFFFFFFFFFFFFFFFFFFFFFFFFFFFFFFFF AND DUP2 MSTORE PUSH1 0x20 ADD SWAP1 DUP2 MSTORE PUSH1 0x20 ADD PUSH0 KECCAK256 PUSH0 SWAP1 SLOAD SWAP1 PUSH2 0x100 EXP SWAP1 DIV PUSH1 0xFF AND SWAP1 POP SWAP3 SWAP2 POP POP JUMP JUMPDEST PUSH0 CALLER SWAP1 POP SWAP1 JUMP JUMPDEST PUSH2 0x2AF7 DUP1 PUSH3 0x18E PUSH0 CODECOPY PUSH0 RETURN INVALID PUSH1 0x80 PUSH1 0x40 MSTORE PUSH1 0x4 CALLDATASIZE LT PUSH2 0xEB JUMPI PUSH0 CALLDATALOAD PUSH1 0xE0 SHR DUP1 PUSH4 0x7D582085 GT PUSH2 0x89 JUMPI DUP1 PUSH4 0xC816DA88 GT PUSH2 0x58 JUMPI DUP1 PUSH4 0xC816DA88 EQ PUSH2 0x375 JUMPI DUP1 PUSH4 0xD547741F EQ PUSH2 0x39D JUMPI DUP1 PUSH4 0xEF52954C EQ PUSH2 0x3C5 JUMPI DUP1 PUSH4 0xFFA35996 EQ PUSH2 0x3ED JUMPI PUSH2 0x12B JUMP JUMPDEST DUP1 PUSH4 0x7D582085 EQ PUSH2 0x297 JUMPI DUP1 PUSH4 0x91D14854 EQ PUSH2 0x2D3 JUMPI DUP1 PUSH4 0xA217FDDF EQ PUSH2 0x30F JUMPI DUP1 PUSH4 0xA9F34983 EQ PUSH2 0x339 JUMPI PUSH2 0x12B JUMP JUMPDEST DUP1 PUSH4 0x2F2FF15D GT PUSH2 0xC5 JUMPI DUP1 PUSH4 0x2F2FF15D EQ PUSH2 0x1E3 JUMPI DUP1 PUSH4 0x3210671E EQ PUSH2 0x20B JUMPI DUP1 PUSH4 0x36568ABE EQ PUSH2 0x233 JUMPI DUP1 PUSH4 0x7526D270 EQ PUSH2 0x25B JUMPI PUSH2 0x12B JUMP JUMPDEST DUP1 PUSH4 0x1FFC9A7 EQ PUSH2 0x12F JUMPI DUP1 PUSH4 0x1AC50A48 EQ PUSH2 0x16B JUMPI DUP1 PUSH4 0x248A9CA3 EQ PUSH2 0x1A7 JUMPI PUSH2 0x12B JUMP JUMPDEST CALLDATASIZE PUSH2 0x12B JUMPI PUSH1 0x40 MLOAD PUSH32 0x8C379A000000000000000000000000000000000000000000000000000000000 DUP2 MSTORE PUSH1 0x4 ADD PUSH2 0x122 SWAP1 PUSH2 0x1860 JUMP JUMPDEST PUSH1 0x40 MLOAD DUP1 SWAP2 SUB SWAP1 REVERT JUMPDEST PUSH0 DUP1 REVERT JUMPDEST CALLVALUE DUP1 ISZERO PUSH2 0x13A JUMPI PUSH0 DUP1 REVERT JUMPDEST POP PUSH2 0x155 PUSH1 0x4 DUP1 CALLDATASIZE SUB DUP2 ADD SWAP1 PUSH2 0x150 SWAP2 SWAP1 PUSH2 0x18DB JUMP JUMPDEST PUSH2 0x415 JUMP JUMPDEST PUSH1 0x40 MLOAD PUSH2 0x162 SWAP2 SWAP1 PUSH2 0x1920 JUMP JUMPDEST PUSH1 0x40 MLOAD DUP1 SWAP2 SUB SWAP1 RETURN JUMPDEST CALLVALUE DUP1 ISZERO PUSH2 0x176 JUMPI PUSH0 DUP1 REVERT JUMPDEST POP PUSH2 0x191 PUSH1 0x4 DUP1 CALLDATASIZE SUB DUP2 ADD SWAP1 PUSH2 0x18C SWAP2 SWAP1 PUSH2 0x195B JUMP JUMPDEST PUSH2 0x48E JUMP JUMPDEST PUSH1 0x40 MLOAD PUSH2 0x19E SWAP2 SWAP1 PUSH2 0x199E JUMP JUMPDEST PUSH1 0x40 MLOAD DUP1 SWAP2 SUB SWAP1 RETURN JUMPDEST CALLVALUE DUP1 ISZERO PUSH2 0x1B2 JUMPI PUSH0 DUP1 REVERT JUMPDEST POP PUSH2 0x1CD PUSH1 0x4 DUP1 CALLDATASIZE SUB DUP2 ADD SWAP1 PUSH2 0x1C8 SWAP2 SWAP1 PUSH2 0x19E1 JUMP JUMPDEST PUSH2 0x6EF JUMP JUMPDEST PUSH1 0x40 MLOAD PUSH2 0x1DA SWAP2 SWAP1 PUSH2 0x199E JUMP JUMPDEST PUSH1 0x40 MLOAD DUP1 SWAP2 SUB SWAP1 RETURN JUMPDEST CALLVALUE DUP1 ISZERO PUSH2 0x1EE JUMPI PUSH0 DUP1 REVERT JUMPDEST POP PUSH2 0x209 PUSH1 0x4 DUP1 CALLDATASIZE SUB DUP2 ADD SWAP1 PUSH2 0x204 SWAP2 SWAP1 PUSH2 0x1A66 JUMP JUMPDEST PUSH2 0x70B JUMP JUMPDEST STOP JUMPDEST CALLVALUE DUP1 ISZERO PUSH2 0x216 JUMPI PUSH0 DUP1 REVERT JUMPDEST POP PUSH2 0x231 PUSH1 0x4 DUP1 CALLDATASIZE SUB DUP2 ADD SWAP1 PUSH2 0x22C SWAP2 SWAP1 PUSH2 0x1AC2 JUMP JUMPDEST PUSH2 0x72C JUMP JUMPDEST STOP JUMPDEST CALLVALUE DUP1 ISZERO PUSH2 0x23E JUMPI PUSH0 DUP1 REVERT JUMPDEST POP PUSH2 0x259 PUSH1 0x4 DUP1 CALLDATASIZE SUB DUP2 ADD SWAP1 PUSH2 0x254 SWAP2 SWAP1 PUSH2 0x1A66 JUMP JUMPDEST PUSH2 0x8A0 JUMP JUMPDEST STOP JUMPDEST CALLVALUE DUP1 ISZERO PUSH2 0x266 JUMPI PUSH0 DUP1 REVERT JUMPDEST POP PUSH2 0x281 PUSH1 0x4 DUP1 CALLDATASIZE SUB DUP2 ADD SWAP1 PUSH2 0x27C SWAP2 SWAP1 PUSH2 0x1AC2 JUMP JUMPDEST PUSH2 0x923 JUMP JUMPDEST PUSH1 0x40 MLOAD PUSH2 0x28E SWAP2 SWAP1 PUSH2 0x199E JUMP JUMPDEST PUSH1 0x40 MLOAD DUP1 SWAP2 SUB SWAP1 RETURN JUMPDEST CALLVALUE DUP1 ISZERO PUSH2 0x2A2 JUMPI PUSH0 DUP1 REVERT JUMPDEST POP PUSH2 0x2BD PUSH1 0x4 DUP1 CALLDATASIZE SUB DUP2 ADD SWAP1 PUSH2 0x2B8 SWAP2 SWAP1 PUSH2 0x19E1 JUMP JUMPDEST PUSH2 0xBAA JUMP JUMPDEST PUSH1 0x40 MLOAD PUSH2 0x2CA SWAP2 SWAP1 PUSH2 0x1920 JUMP JUMPDEST PUSH1 0x40 MLOAD DUP1 SWAP2 SUB SWAP1 RETURN JUMPDEST CALLVALUE DUP1 ISZERO PUSH2 0x2DE JUMPI PUSH0 DUP1 REVERT JUMPDEST POP PUSH2 0x2F9 PUSH1 0x4 DUP1 CALLDATASIZE SUB DUP2 ADD SWAP1 PUSH2 0x2F4 SWAP2 SWAP1 PUSH2 0x1A66 JUMP JUMPDEST PUSH2 0xBD0 JUMP JUMPDEST PUSH1 0x40 MLOAD PUSH2 0x306 SWAP2 SWAP1 PUSH2 0x1920 JUMP JUMPDEST PUSH1 0x40 MLOAD DUP1 SWAP2 SUB SWAP1 RETURN JUMPDEST CALLVALUE DUP1 ISZERO PUSH2 0x31A JUMPI PUSH0 DUP1 REVERT JUMPDEST POP PUSH2 0x323 PUSH2 0xC33 JUMP JUMPDEST PUSH1 0x40 MLOAD PUSH2 0x330 SWAP2 SWAP1 PUSH2 0x199E JUMP JUMPDEST PUSH1 0x40 MLOAD DUP1 SWAP2 SUB SWAP1 RETURN JUMPDEST CALLVALUE DUP1 ISZERO PUSH2 0x344 JUMPI PUSH0 DUP1 REVERT JUMPDEST POP PUSH2 0x35F PUSH1 0x4 DUP1 CALLDATASIZE SUB DUP2 ADD SWAP1 PUSH2 0x35A SWAP2 SWAP1 PUSH2 0x19E1 JUMP JUMPDEST PUSH2 0xC39 JUMP JUMPDEST PUSH1 0x40 MLOAD PUSH2 0x36C SWAP2 SWAP1 PUSH2 0x1920 JUMP JUMPDEST PUSH1 0x40 MLOAD DUP1 SWAP2 SUB SWAP1 RETURN JUMPDEST CALLVALUE DUP1 ISZERO PUSH2 0x380 JUMPI PUSH0 DUP1 REVERT JUMPDEST POP PUSH2 0x39B PUSH1 0x4 DUP1 CALLDATASIZE SUB DUP2 ADD SWAP1 PUSH2 0x396 SWAP2 SWAP1 PUSH2 0x1AC2 JUMP JUMPDEST PUSH2 0xC5F JUMP JUMPDEST STOP JUMPDEST CALLVALUE DUP1 ISZERO PUSH2 0x3A8 JUMPI PUSH0 DUP1 REVERT JUMPDEST POP PUSH2 0x3C3 PUSH1 0x4 DUP1 CALLDATASIZE SUB DUP2 ADD SWAP1 PUSH2 0x3BE SWAP2 SWAP1 PUSH2 0x1A66 JUMP JUMPDEST PUSH2 0xF36 JUMP JUMPDEST STOP JUMPDEST CALLVALUE DUP1 ISZERO PUSH2 0x3D0 JUMPI PUSH0 DUP1 REVERT JUMPDEST POP PUSH2 0x3EB PUSH1 0x4 DUP1 CALLDATASIZE SUB DUP2 ADD SWAP1 PUSH2 0x3E6 SWAP2 SWAP1 PUSH2 0x195B JUMP JUMPDEST PUSH2 0xF57 JUMP JUMPDEST STOP JUMPDEST CALLVALUE DUP1 ISZERO PUSH2 0x3F8 JUMPI PUSH0 DUP1 REVERT JUMPDEST POP PUSH2 0x413 PUSH1 0x4 DUP1 CALLDATASIZE SUB DUP2 ADD SWAP1 PUSH2 0x40E SWAP2 SWAP1 PUSH2 0x195B JUMP JUMPDEST PUSH2 0x1174 JUMP JUMPDEST STOP JUMPDEST PUSH0 PUSH32 0x7965DB0B00000000000000000000000000000000000000000000000000000000 PUSH28 0xFFFFFFFFFFFFFFFFFFFFFFFFFFFFFFFFFFFFFFFFFFFFFFFFFFFFFFFF NOT AND DUP3 PUSH28 0xFFFFFFFFFFFFFFFFFFFFFFFFFFFFFFFFFFFFFFFFFFFFFFFFFFFFFFFF NOT AND EQ DUP1 PUSH2 0x487 JUMPI POP PUSH2 0x486 DUP3 PUSH2 0x12E8 JUMP JUMPDEST JUMPDEST SWAP1 POP SWAP2 SWAP1 POP JUMP JUMPDEST PUSH0 DUP1 DUP3 PUSH1 0x60 ADD CALLDATALOAD GT PUSH2 0x4D5 JUMPI PUSH1 0x40 MLOAD PUSH32 0x8C379A000000000000000000000000000000000000000000000000000000000 DUP2 MSTORE PUSH1 0x4 ADD PUSH2 0x4CC SWAP1 PUSH2 0x1B79 JUMP JUMPDEST PUSH1 0x40 MLOAD DUP1 SWAP2 SUB SWAP1 REVERT JUMPDEST CALLER PUSH20 0xFFFFFFFFFFFFFFFFFFFFFFFFFFFFFFFFFFFFFFFF AND DUP3 PUSH1 0x40 ADD PUSH1 0x20 DUP2 ADD SWAP1 PUSH2 0x4FF SWAP2 SWAP1 PUSH2 0x1B97 JUMP JUMPDEST PUSH20 0xFFFFFFFFFFFFFFFFFFFFFFFFFFFFFFFFFFFFFFFF AND EQ PUSH2 0x555 JUMPI PUSH1 0x40 MLOAD PUSH32 0x8C379A000000000000000000000000000000000000000000000000000000000 DUP2 MSTORE PUSH1 0x4 ADD PUSH2 0x54C SWAP1 PUSH2 0x1C58 JUMP JUMPDEST PUSH1 0x40 MLOAD DUP1 SWAP2 SUB SWAP1 REVERT JUMPDEST PUSH2 0x57F PUSH32 0x523A704056DCD17BCF83BED8B68C59416DAC1119BE77755EFE3BDE0A64E46E0C CALLER PUSH2 0xBD0 JUMP JUMPDEST ISZERO PUSH2 0x5BF JUMPI PUSH1 0x40 MLOAD PUSH32 0x8C379A000000000000000000000000000000000000000000000000000000000 DUP2 MSTORE PUSH1 0x4 ADD PUSH2 0x5B6 SWAP1 PUSH2 0x1D0C JUMP JUMPDEST PUSH1 0x40 MLOAD DUP1 SWAP2 SUB SWAP1 REVERT JUMPDEST PUSH0 DUP3 PUSH1 0x40 MLOAD PUSH1 0x20 ADD PUSH2 0x5D1 SWAP2 SWAP1 PUSH2 0x1E1A JUMP JUMPDEST PUSH1 0x40 MLOAD PUSH1 0x20 DUP2 DUP4 SUB SUB DUP2 MSTORE SWAP1 PUSH1 0x40 MSTORE DUP1 MLOAD SWAP1 PUSH1 0x20 ADD KECCAK256 SWAP1 POP PUSH1 0x2 PUSH0 DUP3 DUP2 MSTORE PUSH1 0x20 ADD SWAP1 DUP2 MSTORE PUSH1 0x20 ADD PUSH0 KECCAK256 PUSH0 SWAP1 SLOAD SWAP1 PUSH2 0x100 EXP SWAP1 DIV PUSH1 0xFF AND ISZERO PUSH2 0x647 JUMPI PUSH1 0x40 MLOAD PUSH32 0x8C379A000000000000000000000000000000000000000000000000000000000 DUP2 MSTORE PUSH1 0x4 ADD PUSH2 0x63E SWAP1 PUSH2 0x1EA3 JUMP JUMPDEST PUSH1 0x40 MLOAD DUP1 SWAP2 SUB SWAP1 REVERT JUMPDEST PUSH1 0x1 PUSH1 0x2 PUSH0 DUP4 DUP2 MSTORE PUSH1 0x20 ADD SWAP1 DUP2 MSTORE PUSH1 0x20 ADD PUSH0 KECCAK256 PUSH0 PUSH2 0x100 EXP DUP2 SLOAD DUP2 PUSH1 0xFF MUL NOT AND SWAP1 DUP4 ISZERO ISZERO MUL OR SWAP1 SSTORE POP PUSH32 0x45C8709EE8C39C83C2C283A9778B3C6F98D4D0D48462A928F8BEFEB3B8BC092D DUP4 PUSH0 ADD PUSH1 0x20 DUP2 ADD SWAP1 PUSH2 0x6A3 SWAP2 SWAP1 PUSH2 0x1B97 JUMP JUMPDEST DUP5 PUSH1 0x20 ADD PUSH1 0x20 DUP2 ADD SWAP1 PUSH2 0x6B6 SWAP2 SWAP1 PUSH2 0x1B97 JUMP JUMPDEST DUP6 PUSH1 0x40 ADD PUSH1 0x20 DUP2 ADD SWAP1 PUSH2 0x6C9 SWAP2 SWAP1 PUSH2 0x1B97 JUMP JUMPDEST DUP7 PUSH1 0x60 ADD CALLDATALOAD PUSH1 0x40 MLOAD PUSH2 0x6DE SWAP5 SWAP4 SWAP3 SWAP2 SWAP1 PUSH2 0x1EDF JUMP JUMPDEST PUSH1 0x40 MLOAD DUP1 SWAP2 SUB SWAP1 LOG1 DUP1 SWAP2 POP POP SWAP2 SWAP1 POP JUMP JUMPDEST PUSH0 DUP1 PUSH0 DUP4 DUP2 MSTORE PUSH1 0x20 ADD SWAP1 DUP2 MSTORE PUSH1 0x20 ADD PUSH0 KECCAK256 PUSH1 0x1 ADD SLOAD SWAP1 POP SWAP2 SWAP1 POP JUMP JUMPDEST PUSH2 0x714 DUP3 PUSH2 0x6EF JUMP JUMPDEST PUSH2 0x71D DUP2 PUSH2 0x1351 JUMP JUMPDEST PUSH2 0x727 DUP4 DUP4 PUSH2 0x1365 JUMP JUMPDEST POP POP POP JUMP JUMPDEST PUSH2 0x756 PUSH32 0x523A704056DCD17BCF83BED8B68C59416DAC1119BE77755EFE3BDE0A64E46E0C CALLER PUSH2 0xBD0 JUMP JUMPDEST DUP1 PUSH2 0x79E JUMPI POP DUP1 PUSH1 0x40 ADD PUSH1 0x20 DUP2 ADD SWAP1 PUSH2 0x76F SWAP2 SWAP1 PUSH2 0x1B97 JUMP JUMPDEST PUSH20 0xFFFFFFFFFFFFFFFFFFFFFFFFFFFFFFFFFFFFFFFF AND CALLER PUSH20 0xFFFFFFFFFFFFFFFFFFFFFFFFFFFFFFFFFFFFFFFF AND EQ JUMPDEST PUSH2 0x7DD JUMPI PUSH1 0x40 MLOAD PUSH32 0x8C379A000000000000000000000000000000000000000000000000000000000 DUP2 MSTORE PUSH1 0x4 ADD PUSH2 0x7D4 SWAP1 PUSH2 0x1F92 JUMP JUMPDEST PUSH1 0x40 MLOAD DUP1 SWAP2 SUB SWAP1 REVERT JUMPDEST PUSH0 DUP2 PUSH1 0x40 MLOAD PUSH1 0x20 ADD PUSH2 0x7EF SWAP2 SWAP1 PUSH2 0x2115 JUMP JUMPDEST PUSH1 0x40 MLOAD PUSH1 0x20 DUP2 DUP4 SUB SUB DUP2 MSTORE SWAP1 PUSH1 0x40 MSTORE DUP1 MLOAD SWAP1 PUSH1 0x20 ADD KECCAK256 SWAP1 POP PUSH2 0x810 DUP2 PUSH2 0xBAA JUMP JUMPDEST PUSH2 0x84F JUMPI PUSH1 0x40 MLOAD PUSH32 0x8C379A000000000000000000000000000000000000000000000000000000000 DUP2 MSTORE PUSH1 0x4 ADD PUSH2 0x846 SWAP1 PUSH2 0x217F JUMP JUMPDEST PUSH1 0x40 MLOAD DUP1 SWAP2 SUB SWAP1 REVERT JUMPDEST PUSH1 0x1 PUSH0 DUP3 DUP2 MSTORE PUSH1 0x20 ADD SWAP1 DUP2 MSTORE PUSH1 0x20 ADD PUSH0 KECCAK256 PUSH0 PUSH2 0x100 EXP DUP2 SLOAD SWAP1 PUSH1 0xFF MUL NOT AND SWAP1 SSTORE DUP1 PUSH32 0x81B490CC4817956534AD0D9B06D6D3033D3F2A2AD9A18B8F9F5C5118F2D4A7A8 PUSH1 0x40 MLOAD PUSH1 0x40 MLOAD DUP1 SWAP2 SUB SWAP1 LOG2 POP POP JUMP JUMPDEST PUSH2 0x8A8 PUSH2 0x143F JUMP JUMPDEST PUSH20 0xFFFFFFFFFFFFFFFFFFFFFFFFFFFFFFFFFFFFFFFF AND DUP2 PUSH20 0xFFFFFFFFFFFFFFFFFFFFFFFFFFFFFFFFFFFFFFFF AND EQ PUSH2 0x915 JUMPI PUSH1 0x40 MLOAD PUSH32 0x8C379A000000000000000000000000000000000000000000000000000000000 DUP2 MSTORE PUSH1 0x4 ADD PUSH2 0x90C SWAP1 PUSH2 0x220D JUMP JUMPDEST PUSH1 0x40 MLOAD DUP1 SWAP2 SUB SWAP1 REVERT JUMPDEST PUSH2 0x91F DUP3 DUP3 PUSH2 0x1446 JUMP JUMPDEST POP POP JUMP JUMPDEST PUSH0 DUP1 DUP3 PUSH1 0x80 ADD CALLDATALOAD GT PUSH2 0x96A JUMPI PUSH1 0x40 MLOAD PUSH32 0x8C379A000000000000000000000000000000000000000000000000000000000 DUP2 MSTORE PUSH1 0x4 ADD PUSH2 0x961 SWAP1 PUSH2 0x2275 JUMP JUMPDEST PUSH1 0x40 MLOAD DUP1 SWAP2 SUB SWAP1 REVERT JUMPDEST CALLER PUSH20 0xFFFFFFFFFFFFFFFFFFFFFFFFFFFFFFFFFFFFFFFF AND DUP3 PUSH0 ADD PUSH1 0x20 DUP2 ADD SWAP1 PUSH2 0x993 SWAP2 SWAP1 PUSH2 0x1B97 JUMP JUMPDEST PUSH20 0xFFFFFFFFFFFFFFFFFFFFFFFFFFFFFFFFFFFFFFFF AND SUB PUSH2 0x9E9 JUMPI PUSH1 0x40 MLOAD PUSH32 0x8C379A000000000000000000000000000000000000000000000000000000000 DUP2 MSTORE PUSH1 0x4 ADD PUSH2 0x9E0 SWAP1 PUSH2 0x2303 JUMP JUMPDEST PUSH1 0x40 MLOAD DUP1 SWAP2 SUB SWAP1 REVERT JUMPDEST CALLER PUSH20 0xFFFFFFFFFFFFFFFFFFFFFFFFFFFFFFFFFFFFFFFF AND DUP3 PUSH1 0x40 ADD PUSH1 0x20 DUP2 ADD SWAP1 PUSH2 0xA13 SWAP2 SWAP1 PUSH2 0x1B97 JUMP JUMPDEST PUSH20 0xFFFFFFFFFFFFFFFFFFFFFFFFFFFFFFFFFFFFFFFF AND EQ PUSH2 0xA69 JUMPI PUSH1 0x40 MLOAD PUSH32 0x8C379A000000000000000000000000000000000000000000000000000000000 DUP2 MSTORE PUSH1 0x4 ADD PUSH2 0xA60 SWAP1 PUSH2 0x2391 JUMP JUMPDEST PUSH1 0x40 MLOAD DUP1 SWAP2 SUB SWAP1 REVERT JUMPDEST PUSH0 DUP3 PUSH1 0x40 MLOAD PUSH1 0x20 ADD PUSH2 0xA7B SWAP2 SWAP1 PUSH2 0x2115 JUMP JUMPDEST PUSH1 0x40 MLOAD PUSH1 0x20 DUP2 DUP4 SUB SUB DUP2 MSTORE SWAP1 PUSH1 0x40 MSTORE DUP1 MLOAD SWAP1 PUSH1 0x20 ADD KECCAK256 SWAP1 POP PUSH1 0x1 PUSH0 DUP3 DUP2 MSTORE PUSH1 0x20 ADD SWAP1 DUP2 MSTORE PUSH1 0x20 ADD PUSH0 KECCAK256 PUSH0 SWAP1 SLOAD SWAP1 PUSH2 0x100 EXP SWAP1 DIV PUSH1 0xFF AND ISZERO PUSH2 0xAF1 JUMPI PUSH1 0x40 MLOAD PUSH32 0x8C379A000000000000000000000000000000000000000000000000000000000 DUP2 MSTORE PUSH1 0x4 ADD PUSH2 0xAE8 SWAP1 PUSH2 0x241F JUMP JUMPDEST PUSH1 0x40 MLOAD DUP1 SWAP2 SUB SWAP1 REVERT JUMPDEST PUSH1 0x1 DUP1 PUSH0 DUP4 DUP2 MSTORE PUSH1 0x20 ADD SWAP1 DUP2 MSTORE PUSH1 0x20 ADD PUSH0 KECCAK256 PUSH0 PUSH2 0x100 EXP DUP2 SLOAD DUP2 PUSH1 0xFF MUL NOT AND SWAP1 DUP4 ISZERO ISZERO MUL OR SWAP1 SSTORE POP PUSH32 0x743E2E8BB380A875E740375952B0F4BC207DE49E8D745BAD8EA77F59B6B49712 DUP4 PUSH0 ADD PUSH1 0x20 DUP2 ADD SWAP1 PUSH2 0xB4C SWAP2 SWAP1 PUSH2 0x1B97 JUMP JUMPDEST DUP5 PUSH1 0x20 ADD PUSH1 0x20 DUP2 ADD SWAP1 PUSH2 0xB5F SWAP2 SWAP1 PUSH2 0x1B97 JUMP JUMPDEST DUP6 PUSH1 0x40 ADD PUSH1 0x20 DUP2 ADD SWAP1 PUSH2 0xB72 SWAP2 SWAP1 PUSH2 0x1B97 JUMP JUMPDEST DUP7 DUP1 PUSH1 0x60 ADD SWAP1 PUSH2 0xB82 SWAP2 SWAP1 PUSH2 0x2449 JUMP JUMPDEST DUP9 PUSH1 0x80 ADD CALLDATALOAD PUSH1 0x40 MLOAD PUSH2 0xB99 SWAP7 SWAP6 SWAP5 SWAP4 SWAP3 SWAP2 SWAP1 PUSH2 0x24D7 JUMP JUMPDEST PUSH1 0x40 MLOAD DUP1 SWAP2 SUB SWAP1 LOG1 DUP1 SWAP2 POP POP SWAP2 SWAP1 POP JUMP JUMPDEST PUSH0 PUSH1 0x1 PUSH0 DUP4 DUP2 MSTORE PUSH1 0x20 ADD SWAP1 DUP2 MSTORE PUSH1 0x20 ADD PUSH0 KECCAK256 PUSH0 SWAP1 SLOAD SWAP1 PUSH2 0x100 EXP SWAP1 DIV PUSH1 0xFF AND SWAP1 POP SWAP2 SWAP1 POP JUMP JUMPDEST PUSH0 DUP1 PUSH0 DUP5 DUP2 MSTORE PUSH1 0x20 ADD SWAP1 DUP2 MSTORE PUSH1 0x20 ADD PUSH0 KECCAK256 PUSH0 ADD PUSH0 DUP4 PUSH20 0xFFFFFFFFFFFFFFFFFFFFFFFFFFFFFFFFFFFFFFFF AND PUSH20 0xFFFFFFFFFFFFFFFFFFFFFFFFFFFFFFFFFFFFFFFF AND DUP2 MSTORE PUSH1 0x20 ADD SWAP1 DUP2 MSTORE PUSH1 0x20 ADD PUSH0 KECCAK256 PUSH0 SWAP1 SLOAD SWAP1 PUSH2 0x100 EXP SWAP1 DIV PUSH1 0xFF AND SWAP1 POP SWAP3 SWAP2 POP POP JUMP JUMPDEST PUSH0 DUP1 SHL DUP2 JUMP JUMPDEST PUSH0 PUSH1 0x2 PUSH0 DUP4 DUP2 MSTORE PUSH1 0x20 ADD SWAP1 DUP2 MSTORE PUSH1 0x20 ADD PUSH0 KECCAK256 PUSH0 SWAP1 SLOAD SWAP1 PUSH2 0x100 EXP SWAP1 DIV PUSH1 0xFF AND SWAP1 POP SWAP2 SWAP1 POP JUMP JUMPDEST PUSH0 DUP2 PUSH1 0x40 MLOAD PUSH1 0x20 ADD PUSH2 0xC71 SWAP2 SWAP1 PUSH2 0x2115 JUMP JUMPDEST PUSH1 0x40 MLOAD PUSH1 0x20 DUP2 DUP4 SUB SUB DUP2 MSTORE SWAP1 PUSH1 0x40 MSTORE DUP1 MLOAD SWAP1 PUSH1 0x20 ADD KECCAK256 SWAP1 POP PUSH2 0xC92 DUP2 PUSH2 0xBAA JUMP JUMPDEST PUSH2 0xCD1 JUMPI PUSH1 0x40 MLOAD PUSH32 0x8C379A000000000000000000000000000000000000000000000000000000000 DUP2 MSTORE PUSH1 0x4 ADD PUSH2 0xCC8 SWAP1 PUSH2 0x217F JUMP JUMPDEST PUSH1 0x40 MLOAD DUP1 SWAP2 SUB SWAP1 REVERT JUMPDEST PUSH0 DUP3 PUSH1 0x20 ADD PUSH1 0x20 DUP2 ADD SWAP1 PUSH2 0xCE5 SWAP2 SWAP1 PUSH2 0x1B97 JUMP JUMPDEST SWAP1 POP DUP3 PUSH1 0x80 ADD CALLDATALOAD DUP2 PUSH20 0xFFFFFFFFFFFFFFFFFFFFFFFFFFFFFFFFFFFFFFFF AND PUSH4 0xDD62ED3E DUP6 PUSH0 ADD PUSH1 0x20 DUP2 ADD SWAP1 PUSH2 0xD1A SWAP2 SWAP1 PUSH2 0x1B97 JUMP JUMPDEST ADDRESS PUSH1 0x40 MLOAD DUP4 PUSH4 0xFFFFFFFF AND PUSH1 0xE0 SHL DUP2 MSTORE PUSH1 0x4 ADD PUSH2 0xD38 SWAP3 SWAP2 SWAP1 PUSH2 0x2531 JUMP JUMPDEST PUSH1 0x20 PUSH1 0x40 MLOAD DUP1 DUP4 SUB DUP2 DUP7 GAS STATICCALL ISZERO DUP1 ISZERO PUSH2 0xD53 JUMPI RETURNDATASIZE PUSH0 DUP1 RETURNDATACOPY RETURNDATASIZE PUSH0 REVERT JUMPDEST POP POP POP POP PUSH1 0x40 MLOAD RETURNDATASIZE PUSH1 0x1F NOT PUSH1 0x1F DUP3 ADD AND DUP3 ADD DUP1 PUSH1 0x40 MSTORE POP DUP2 ADD SWAP1 PUSH2 0xD77 SWAP2 SWAP1 PUSH2 0x256C JUMP JUMPDEST LT ISZERO PUSH2 0xDB8 JUMPI PUSH1 0x40 MLOAD PUSH32 0x8C379A000000000000000000000000000000000000000000000000000000000 DUP2 MSTORE PUSH1 0x4 ADD PUSH2 0xDAF SWAP1 PUSH2 0x2607 JUMP JUMPDEST PUSH1 0x40 MLOAD DUP1 SWAP2 SUB SWAP1 REVERT JUMPDEST DUP1 PUSH20 0xFFFFFFFFFFFFFFFFFFFFFFFFFFFFFFFFFFFFFFFF AND PUSH4 0x23B872DD DUP5 PUSH0 ADD PUSH1 0x20 DUP2 ADD SWAP1 PUSH2 0xDE6 SWAP2 SWAP1 PUSH2 0x1B97 JUMP JUMPDEST ADDRESS DUP7 PUSH1 0x80 ADD CALLDATALOAD PUSH1 0x40 MLOAD DUP5 PUSH4 0xFFFFFFFF AND PUSH1 0xE0 SHL DUP2 MSTORE PUSH1 0x4 ADD PUSH2 0xE0A SWAP4 SWAP3 SWAP2 SWAP1 PUSH2 0x2625 JUMP JUMPDEST PUSH1 0x20 PUSH1 0x40 MLOAD DUP1 DUP4 SUB DUP2 PUSH0 DUP8 GAS CALL ISZERO DUP1 ISZERO PUSH2 0xE26 JUMPI RETURNDATASIZE PUSH0 DUP1 RETURNDATACOPY RETURNDATASIZE PUSH0 REVERT JUMPDEST POP POP POP POP PUSH1 0x40 MLOAD RETURNDATASIZE PUSH1 0x1F NOT PUSH1 0x1F DUP3 ADD AND DUP3 ADD DUP1 PUSH1 0x40 MSTORE POP DUP2 ADD SWAP1 PUSH2 0xE4A SWAP2 SWAP1 PUSH2 0x2684 JUMP JUMPDEST PUSH2 0xE89 JUMPI PUSH1 0x40 MLOAD PUSH32 0x8C379A000000000000000000000000000000000000000000000000000000000 DUP2 MSTORE PUSH1 0x4 ADD PUSH2 0xE80 SWAP1 PUSH2 0x26F9 JUMP JUMPDEST PUSH1 0x40 MLOAD DUP1 SWAP2 SUB SWAP1 REVERT JUMPDEST PUSH1 0x1 PUSH0 DUP4 DUP2 MSTORE PUSH1 0x20 ADD SWAP1 DUP2 MSTORE PUSH1 0x20 ADD PUSH0 KECCAK256 PUSH0 PUSH2 0x100 EXP DUP2 SLOAD SWAP1 PUSH1 0xFF MUL NOT AND SWAP1 SSTORE PUSH32 0x21AA3E3037A1802200EFC22040B5BC9E3B460A5FAC2FFE05671E52E7CBCC45B DUP4 PUSH0 ADD PUSH1 0x20 DUP2 ADD SWAP1 PUSH2 0xEDC SWAP2 SWAP1 PUSH2 0x1B97 JUMP JUMPDEST DUP5 PUSH1 0x20 ADD PUSH1 0x20 DUP2 ADD SWAP1 PUSH2 0xEEF SWAP2 SWAP1 PUSH2 0x1B97 JUMP JUMPDEST DUP6 PUSH1 0x40 ADD PUSH1 0x20 DUP2 ADD SWAP1 PUSH2 0xF02 SWAP2 SWAP1 PUSH2 0x1B97 JUMP JUMPDEST DUP7 DUP1 PUSH1 0x60 ADD SWAP1 PUSH2 0xF12 SWAP2 SWAP1 PUSH2 0x2449 JUMP JUMPDEST DUP9 PUSH1 0x80 ADD CALLDATALOAD PUSH1 0x40 MLOAD PUSH2 0xF29 SWAP7 SWAP6 SWAP5 SWAP4 SWAP3 SWAP2 SWAP1 PUSH2 0x24D7 JUMP JUMPDEST PUSH1 0x40 MLOAD DUP1 SWAP2 SUB SWAP1 LOG1 POP POP POP JUMP JUMPDEST PUSH2 0xF3F DUP3 PUSH2 0x6EF JUMP JUMPDEST PUSH2 0xF48 DUP2 PUSH2 0x1351 JUMP JUMPDEST PUSH2 0xF52 DUP4 DUP4 PUSH2 0x1446 JUMP JUMPDEST POP POP POP JUMP JUMPDEST PUSH32 0x523A704056DCD17BCF83BED8B68C59416DAC1119BE77755EFE3BDE0A64E46E0C PUSH2 0xF81 DUP2 PUSH2 0x1351 JUMP JUMPDEST PUSH0 DUP3 PUSH1 0x40 MLOAD PUSH1 0x20 ADD PUSH2 0xF93 SWAP2 SWAP1 PUSH2 0x1E1A JUMP JUMPDEST PUSH1 0x40 MLOAD PUSH1 0x20 DUP2 DUP4 SUB SUB DUP2 MSTORE SWAP1 PUSH1 0x40 MSTORE DUP1 MLOAD SWAP1 PUSH1 0x20 ADD KECCAK256 SWAP1 POP PUSH2 0xFB4 DUP2 PUSH2 0xC39 JUMP JUMPDEST PUSH2 0xFF3 JUMPI PUSH1 0x40 MLOAD PUSH32 0x8C379A000000000000000000000000000000000000000000000000000000000 DUP2 MSTORE PUSH1 0x4 ADD PUSH2 0xFEA SWAP1 PUSH2 0x2761 JUMP JUMPDEST PUSH1 0x40 MLOAD DUP1 SWAP2 SUB SWAP1 REVERT JUMPDEST PUSH0 DUP4 PUSH0 ADD PUSH1 0x20 DUP2 ADD SWAP1 PUSH2 0x1006 SWAP2 SWAP1 PUSH2 0x1B97 JUMP JUMPDEST SWAP1 POP DUP1 PUSH20 0xFFFFFFFFFFFFFFFFFFFFFFFFFFFFFFFFFFFFFFFF AND PUSH4 0xA9059CBB DUP6 PUSH1 0x20 ADD PUSH1 0x20 DUP2 ADD SWAP1 PUSH2 0x1037 SWAP2 SWAP1 PUSH2 0x1B97 JUMP JUMPDEST DUP7 PUSH1 0x60 ADD CALLDATALOAD PUSH1 0x40 MLOAD DUP4 PUSH4 0xFFFFFFFF AND PUSH1 0xE0 SHL DUP2 MSTORE PUSH1 0x4 ADD PUSH2 0x1059 SWAP3 SWAP2 SWAP1 PUSH2 0x277F JUMP JUMPDEST PUSH1 0x20 PUSH1 0x40 MLOAD DUP1 DUP4 SUB DUP2 PUSH0 DUP8 GAS CALL ISZERO DUP1 ISZERO PUSH2 0x1075 JUMPI RETURNDATASIZE PUSH0 DUP1 RETURNDATACOPY RETURNDATASIZE PUSH0 REVERT JUMPDEST POP POP POP POP PUSH1 0x40 MLOAD RETURNDATASIZE PUSH1 0x1F NOT PUSH1 0x1F DUP3 ADD AND DUP3 ADD DUP1 PUSH1 0x40 MSTORE POP DUP2 ADD SWAP1 PUSH2 0x1099 SWAP2 SWAP1 PUSH2 0x2684 JUMP JUMPDEST PUSH2 0x10D8 JUMPI PUSH1 0x40 MLOAD PUSH32 0x8C379A000000000000000000000000000000000000000000000000000000000 DUP2 MSTORE PUSH1 0x4 ADD PUSH2 0x10CF SWAP1 PUSH2 0x26F9 JUMP JUMPDEST PUSH1 0x40 MLOAD DUP1 SWAP2 SUB SWAP1 REVERT JUMPDEST PUSH1 0x2 PUSH0 DUP4 DUP2 MSTORE PUSH1 0x20 ADD SWAP1 DUP2 MSTORE PUSH1 0x20 ADD PUSH0 KECCAK256 PUSH0 PUSH2 0x100 EXP DUP2 SLOAD SWAP1 PUSH1 0xFF MUL NOT AND SWAP1 SSTORE PUSH32 0x4EB55EB3A0BF2D7C776A5BD6AA8A9BBA5D651E84DD4EAC89405A29523244250 DUP5 PUSH0 ADD PUSH1 0x20 DUP2 ADD SWAP1 PUSH2 0x112B SWAP2 SWAP1 PUSH2 0x1B97 JUMP JUMPDEST DUP6 PUSH1 0x20 ADD PUSH1 0x20 DUP2 ADD SWAP1 PUSH2 0x113E SWAP2 SWAP1 PUSH2 0x1B97 JUMP JUMPDEST DUP7 PUSH1 0x40 ADD PUSH1 0x20 DUP2 ADD SWAP1 PUSH2 0x1151 SWAP2 SWAP1 PUSH2 0x1B97 JUMP JUMPDEST DUP8 PUSH1 0x60 ADD CALLDATALOAD PUSH1 0x40 MLOAD PUSH2 0x1166 SWAP5 SWAP4 SWAP3 SWAP2 SWAP1 PUSH2 0x1EDF JUMP JUMPDEST PUSH1 0x40 MLOAD DUP1 SWAP2 SUB SWAP1 LOG1 POP POP POP POP JUMP JUMPDEST PUSH2 0x119E PUSH32 0x523A704056DCD17BCF83BED8B68C59416DAC1119BE77755EFE3BDE0A64E46E0C CALLER PUSH2 0xBD0 JUMP JUMPDEST DUP1 PUSH2 0x11E6 JUMPI POP DUP1 PUSH1 0x40 ADD PUSH1 0x20 DUP2 ADD SWAP1 PUSH2 0x11B7 SWAP2 SWAP1 PUSH2 0x1B97 JUMP JUMPDEST PUSH20 0xFFFFFFFFFFFFFFFFFFFFFFFFFFFFFFFFFFFFFFFF AND CALLER PUSH20 0xFFFFFFFFFFFFFFFFFFFFFFFFFFFFFFFFFFFFFFFF AND EQ JUMPDEST PUSH2 0x1225 JUMPI PUSH1 0x40 MLOAD PUSH32 0x8C379A000000000000000000000000000000000000000000000000000000000 DUP2 MSTORE PUSH1 0x4 ADD PUSH2 0x121C SWAP1 PUSH2 0x1F92 JUMP JUMPDEST PUSH1 0x40 MLOAD DUP1 SWAP2 SUB SWAP1 REVERT JUMPDEST PUSH0 DUP2 PUSH1 0x40 MLOAD PUSH1 0x20 ADD PUSH2 0x1237 SWAP2 SWAP1 PUSH2 0x1E1A JUMP JUMPDEST PUSH1 0x40 MLOAD PUSH1 0x20 DUP2 DUP4 SUB SUB DUP2 MSTORE SWAP1 PUSH1 0x40 MSTORE DUP1 MLOAD SWAP1 PUSH1 0x20 ADD KECCAK256 SWAP1 POP PUSH2 0x1258 DUP2 PUSH2 0xC39 JUMP JUMPDEST PUSH2 0x1297 JUMPI PUSH1 0x40 MLOAD PUSH32 0x8C379A000000000000000000000000000000000000000000000000000000000 DUP2 MSTORE PUSH1 0x4 ADD PUSH2 0x128E SWAP1 PUSH2 0x2761 JUMP JUMPDEST PUSH1 0x40 MLOAD DUP1 SWAP2 SUB SWAP1 REVERT JUMPDEST PUSH1 0x2 PUSH0 DUP3 DUP2 MSTORE PUSH1 0x20 ADD SWAP1 DUP2 MSTORE PUSH1 0x20 ADD PUSH0 KECCAK256 PUSH0 PUSH2 0x100 EXP DUP2 SLOAD SWAP1 PUSH1 0xFF MUL NOT AND SWAP1 SSTORE DUP1 PUSH32 0x669DF298AC9E63BCB8AF79778523CB89A20A5B9B96367D7AA16E07A5EDF6D45F PUSH1 0x40 MLOAD PUSH1 0x40 MLOAD DUP1 SWAP2 SUB SWAP1 LOG2 POP POP JUMP JUMPDEST PUSH0 PUSH32 0x1FFC9A700000000000000000000000000000000000000000000000000000000 PUSH28 0xFFFFFFFFFFFFFFFFFFFFFFFFFFFFFFFFFFFFFFFFFFFFFFFFFFFFFFFF NOT AND DUP3 PUSH28 0xFFFFFFFFFFFFFFFFFFFFFFFFFFFFFFFFFFFFFFFFFFFFFFFFFFFFFFFF NOT AND EQ SWAP1 POP SWAP2 SWAP1 POP JUMP JUMPDEST PUSH2 0x1362 DUP2 PUSH2 0x135D PUSH2 0x143F JUMP JUMPDEST PUSH2 0x1520 JUMP JUMPDEST POP JUMP JUMPDEST PUSH2 0x136F DUP3 DUP3 PUSH2 0xBD0 JUMP JUMPDEST PUSH2 0x143B JUMPI PUSH1 0x1 PUSH0 DUP1 DUP5 DUP2 MSTORE PUSH1 0x20 ADD SWAP1 DUP2 MSTORE PUSH1 0x20 ADD PUSH0 KECCAK256 PUSH0 ADD PUSH0 DUP4 PUSH20 0xFFFFFFFFFFFFFFFFFFFFFFFFFFFFFFFFFFFFFFFF AND PUSH20 0xFFFFFFFFFFFFFFFFFFFFFFFFFFFFFFFFFFFFFFFF AND DUP2 MSTORE PUSH1 0x20 ADD SWAP1 DUP2 MSTORE PUSH1 0x20 ADD PUSH0 KECCAK256 PUSH0 PUSH2 0x100 EXP DUP2 SLOAD DUP2 PUSH1 0xFF MUL NOT AND SWAP1 DUP4 ISZERO ISZERO MUL OR SWAP1 SSTORE POP PUSH2 0x13E0 PUSH2 0x143F JUMP JUMPDEST PUSH20 0xFFFFFFFFFFFFFFFFFFFFFFFFFFFFFFFFFFFFFFFF AND DUP2 PUSH20 0xFFFFFFFFFFFFFFFFFFFFFFFFFFFFFFFFFFFFFFFF AND DUP4 PUSH32 0x2F8788117E7EFF1D82E926EC794901D17C78024A50270940304540A733656F0D PUSH1 0x40 MLOAD PUSH1 0x40 MLOAD DUP1 SWAP2 SUB SWAP1 LOG4 JUMPDEST POP POP JUMP JUMPDEST PUSH0 CALLER SWAP1 POP SWAP1 JUMP JUMPDEST PUSH2 0x1450 DUP3 DUP3 PUSH2 0xBD0 JUMP JUMPDEST ISZERO PUSH2 0x151C JUMPI PUSH0 DUP1 PUSH0 DUP5 DUP2 MSTORE PUSH1 0x20 ADD SWAP1 DUP2 MSTORE PUSH1 0x20 ADD PUSH0 KECCAK256 PUSH0 ADD PUSH0 DUP4 PUSH20 0xFFFFFFFFFFFFFFFFFFFFFFFFFFFFFFFFFFFFFFFF AND PUSH20 0xFFFFFFFFFFFFFFFFFFFFFFFFFFFFFFFFFFFFFFFF AND DUP2 MSTORE PUSH1 0x20 ADD SWAP1 DUP2 MSTORE PUSH1 0x20 ADD PUSH0 KECCAK256 PUSH0 PUSH2 0x100 EXP DUP2 SLOAD DUP2 PUSH1 0xFF MUL NOT AND SWAP1 DUP4 ISZERO ISZERO MUL OR SWAP1 SSTORE POP PUSH2 0x14C1 PUSH2 0x143F JUMP JUMPDEST PUSH20 0xFFFFFFFFFFFFFFFFFFFFFFFFFFFFFFFFFFFFFFFF AND DUP2 PUSH20 0xFFFFFFFFFFFFFFFFFFFFFFFFFFFFFFFFFFFFFFFF AND DUP4 PUSH32 0xF6391F5C32D9C69D2A47EA670B442974B53935D1EDC7FD64EB21E047A839171B PUSH1 0x40 MLOAD PUSH1 0x40 MLOAD DUP1 SWAP2 SUB SWAP1 LOG4 JUMPDEST POP POP JUMP JUMPDEST PUSH2 0x152A DUP3 DUP3 PUSH2 0xBD0 JUMP JUMPDEST PUSH2 0x15A0 JUMPI PUSH2 0x1537 DUP2 PUSH2 0x15A4 JUMP JUMPDEST PUSH2 0x1544 DUP4 PUSH0 SHR PUSH1 0x20 PUSH2 0x15D1 JUMP JUMPDEST PUSH1 0x40 MLOAD PUSH1 0x20 ADD PUSH2 0x1555 SWAP3 SWAP2 SWAP1 PUSH2 0x28A6 JUMP JUMPDEST PUSH1 0x40 MLOAD PUSH1 0x20 DUP2 DUP4 SUB SUB DUP2 MSTORE SWAP1 PUSH1 0x40 MSTORE PUSH1 0x40 MLOAD PUSH32 0x8C379A000000000000000000000000000000000000000000000000000000000 DUP2 MSTORE PUSH1 0x4 ADD PUSH2 0x1597 SWAP2 SWAP1 PUSH2 0x2917 JUMP JUMPDEST PUSH1 0x40 MLOAD DUP1 SWAP2 SUB SWAP1 REVERT JUMPDEST POP POP JUMP JUMPDEST PUSH1 0x60 PUSH2 0x15CA DUP3 PUSH20 0xFFFFFFFFFFFFFFFFFFFFFFFFFFFFFFFFFFFFFFFF AND PUSH1 0x14 PUSH1 0xFF AND PUSH2 0x15D1 JUMP JUMPDEST SWAP1 POP SWAP2 SWAP1 POP JUMP JUMPDEST PUSH1 0x60 PUSH0 PUSH1 0x2 DUP4 PUSH1 0x2 PUSH2 0x15E3 SWAP2 SWAP1 PUSH2 0x2964 JUMP JUMPDEST PUSH2 0x15ED SWAP2 SWAP1 PUSH2 0x29A5 JUMP JUMPDEST PUSH8 0xFFFFFFFFFFFFFFFF DUP2 GT ISZERO PUSH2 0x1606 JUMPI PUSH2 0x1605 PUSH2 0x29D8 JUMP JUMPDEST JUMPDEST PUSH1 0x40 MLOAD SWAP1 DUP1 DUP3 MSTORE DUP1 PUSH1 0x1F ADD PUSH1 0x1F NOT AND PUSH1 0x20 ADD DUP3 ADD PUSH1 0x40 MSTORE DUP1 ISZERO PUSH2 0x1638 JUMPI DUP2 PUSH1 0x20 ADD PUSH1 0x1 DUP3 MUL DUP1 CALLDATASIZE DUP4 CALLDATACOPY DUP1 DUP3 ADD SWAP2 POP POP SWAP1 POP JUMPDEST POP SWAP1 POP PUSH32 0x3000000000000000000000000000000000000000000000000000000000000000 DUP2 PUSH0 DUP2 MLOAD DUP2 LT PUSH2 0x166F JUMPI PUSH2 0x166E PUSH2 0x2A05 JUMP JUMPDEST JUMPDEST PUSH1 0x20 ADD ADD SWAP1 PUSH31 0xFFFFFFFFFFFFFFFFFFFFFFFFFFFFFFFFFFFFFFFFFFFFFFFFFFFFFFFFFFFFFF NOT AND SWAP1 DUP2 PUSH0 BYTE SWAP1 MSTORE8 POP PUSH32 0x7800000000000000000000000000000000000000000000000000000000000000 DUP2 PUSH1 0x1 DUP2 MLOAD DUP2 LT PUSH2 0x16D2 JUMPI PUSH2 0x16D1 PUSH2 0x2A05 JUMP JUMPDEST JUMPDEST PUSH1 0x20 ADD ADD SWAP1 PUSH31 0xFFFFFFFFFFFFFFFFFFFFFFFFFFFFFFFFFFFFFFFFFFFFFFFFFFFFFFFFFFFFFF NOT AND SWAP1 DUP2 PUSH0 BYTE SWAP1 MSTORE8 POP PUSH0 PUSH1 0x1 DUP5 PUSH1 0x2 PUSH2 0x1710 SWAP2 SWAP1 PUSH2 0x2964 JUMP JUMPDEST PUSH2 0x171A SWAP2 SWAP1 PUSH2 0x29A5 JUMP JUMPDEST SWAP1 POP JUMPDEST PUSH1 0x1 DUP2 GT ISZERO PUSH2 0x17B9 JUMPI PUSH32 0x3031323334353637383961626364656600000000000000000000000000000000 PUSH1 0xF DUP7 AND PUSH1 0x10 DUP2 LT PUSH2 0x175C JUMPI PUSH2 0x175B PUSH2 0x2A05 JUMP JUMPDEST JUMPDEST BYTE PUSH1 0xF8 SHL DUP3 DUP3 DUP2 MLOAD DUP2 LT PUSH2 0x1773 JUMPI PUSH2 0x1772 PUSH2 0x2A05 JUMP JUMPDEST JUMPDEST PUSH1 0x20 ADD ADD SWAP1 PUSH31 0xFFFFFFFFFFFFFFFFFFFFFFFFFFFFFFFFFFFFFFFFFFFFFFFFFFFFFFFFFFFFFF NOT AND SWAP1 DUP2 PUSH0 BYTE SWAP1 MSTORE8 POP PUSH1 0x4 DUP6 SWAP1 SHR SWAP5 POP DUP1 PUSH2 0x17B2 SWAP1 PUSH2 0x2A32 JUMP JUMPDEST SWAP1 POP PUSH2 0x171D JUMP JUMPDEST POP PUSH0 DUP5 EQ PUSH2 0x17FC JUMPI PUSH1 0x40 MLOAD PUSH32 0x8C379A000000000000000000000000000000000000000000000000000000000 DUP2 MSTORE PUSH1 0x4 ADD PUSH2 0x17F3 SWAP1 PUSH2 0x2AA3 JUMP JUMPDEST PUSH1 0x40 MLOAD DUP1 SWAP2 SUB SWAP1 REVERT JUMPDEST DUP1 SWAP2 POP POP SWAP3 SWAP2 POP POP JUMP JUMPDEST PUSH0 DUP3 DUP3 MSTORE PUSH1 0x20 DUP3 ADD SWAP1 POP SWAP3 SWAP2 POP POP JUMP JUMPDEST PUSH32 0x4574686572207061796D656E7473206E6F7420616C6C6F776564000000000000 PUSH0 DUP3 ADD MSTORE POP JUMP JUMPDEST PUSH0 PUSH2 0x184A PUSH1 0x1A DUP4 PUSH2 0x1806 JUMP JUMPDEST SWAP2 POP PUSH2 0x1855 DUP3 PUSH2 0x1816 JUMP JUMPDEST PUSH1 0x20 DUP3 ADD SWAP1 POP SWAP2 SWAP1 POP JUMP JUMPDEST PUSH0 PUSH1 0x20 DUP3 ADD SWAP1 POP DUP2 DUP2 SUB PUSH0 DUP4 ADD MSTORE PUSH2 0x1877 DUP2 PUSH2 0x183E JUMP JUMPDEST SWAP1 POP SWAP2 SWAP1 POP JUMP JUMPDEST PUSH0 DUP1 REVERT JUMPDEST PUSH0 DUP1 REVERT JUMPDEST PUSH0 PUSH32 0xFFFFFFFF00000000000000000000000000000000000000000000000000000000 DUP3 AND SWAP1 POP SWAP2 SWAP1 POP JUMP JUMPDEST PUSH2 0x18BA DUP2 PUSH2 0x1886 JUMP JUMPDEST DUP2 EQ PUSH2 0x18C4 JUMPI PUSH0 DUP1 REVERT JUMPDEST POP JUMP JUMPDEST PUSH0 DUP2 CALLDATALOAD SWAP1 POP PUSH2 0x18D5 DUP2 PUSH2 0x18B1 JUMP JUMPDEST SWAP3 SWAP2 POP POP JUMP JUMPDEST PUSH0 PUSH1 0x20 DUP3 DUP5 SUB SLT ISZERO PUSH2 0x18F0 JUMPI PUSH2 0x18EF PUSH2 0x187E JUMP JUMPDEST JUMPDEST PUSH0 PUSH2 0x18FD DUP5 DUP3 DUP6 ADD PUSH2 0x18C7 JUMP JUMPDEST SWAP2 POP POP SWAP3 SWAP2 POP POP JUMP JUMPDEST PUSH0 DUP2 ISZERO ISZERO SWAP1 POP SWAP2 SWAP1 POP JUMP JUMPDEST PUSH2 0x191A DUP2 PUSH2 0x1906 JUMP JUMPDEST DUP3 MSTORE POP POP JUMP JUMPDEST PUSH0 PUSH1 0x20 DUP3 ADD SWAP1 POP PUSH2 0x1933 PUSH0 DUP4 ADD DUP5 PUSH2 0x1911 JUMP JUMPDEST SWAP3 SWAP2 POP POP JUMP JUMPDEST PUSH0 DUP1 REVERT JUMPDEST PUSH0 PUSH1 0x80 DUP3 DUP5 SUB SLT ISZERO PUSH2 0x1952 JUMPI PUSH2 0x1951 PUSH2 0x1939 JUMP JUMPDEST JUMPDEST DUP2 SWAP1 POP SWAP3 SWAP2 POP POP JUMP JUMPDEST PUSH0 PUSH1 0x80 DUP3 DUP5 SUB SLT ISZERO PUSH2 0x1970 JUMPI PUSH2 0x196F PUSH2 0x187E JUMP JUMPDEST JUMPDEST PUSH0 PUSH2 0x197D DUP5 DUP3 DUP6 ADD PUSH2 0x193D JUMP JUMPDEST SWAP2 POP POP SWAP3 SWAP2 POP POP JUMP JUMPDEST PUSH0 DUP2 SWAP1 POP SWAP2 SWAP1 POP JUMP JUMPDEST PUSH2 0x1998 DUP2 PUSH2 0x1986 JUMP JUMPDEST DUP3 MSTORE POP POP JUMP JUMPDEST PUSH0 PUSH1 0x20 DUP3 ADD SWAP1 POP PUSH2 0x19B1 PUSH0 DUP4 ADD DUP5 PUSH2 0x198F JUMP JUMPDEST SWAP3 SWAP2 POP POP JUMP JUMPDEST PUSH2 0x19C0 DUP2 PUSH2 0x1986 JUMP JUMPDEST DUP2 EQ PUSH2 0x19CA JUMPI PUSH0 DUP1 REVERT JUMPDEST POP JUMP JUMPDEST PUSH0 DUP2 CALLDATALOAD SWAP1 POP PUSH2 0x19DB DUP2 PUSH2 0x19B7 JUMP JUMPDEST SWAP3 SWAP2 POP POP JUMP JUMPDEST PUSH0 PUSH1 0x20 DUP3 DUP5 SUB SLT ISZERO PUSH2 0x19F6 JUMPI PUSH2 0x19F5 PUSH2 0x187E JUMP JUMPDEST JUMPDEST PUSH0 PUSH2 0x1A03 DUP5 DUP3 DUP6 ADD PUSH2 0x19CD JUMP JUMPDEST SWAP2 POP POP SWAP3 SWAP2 POP POP JUMP JUMPDEST PUSH0 PUSH20 0xFFFFFFFFFFFFFFFFFFFFFFFFFFFFFFFFFFFFFFFF DUP3 AND SWAP1 POP SWAP2 SWAP1 POP JUMP JUMPDEST PUSH0 PUSH2 0x1A35 DUP3 PUSH2 0x1A0C JUMP JUMPDEST SWAP1 POP SWAP2 SWAP1 POP JUMP JUMPDEST PUSH2 0x1A45 DUP2 PUSH2 0x1A2B JUMP JUMPDEST DUP2 EQ PUSH2 0x1A4F JUMPI PUSH0 DUP1 REVERT JUMPDEST POP JUMP JUMPDEST PUSH0 DUP2 CALLDATALOAD SWAP1 POP PUSH2 0x1A60 DUP2 PUSH2 0x1A3C JUMP JUMPDEST SWAP3 SWAP2 POP POP JUMP JUMPDEST PUSH0 DUP1 PUSH1 0x40 DUP4 DUP6 SUB SLT ISZERO PUSH2 0x1A7C JUMPI PUSH2 0x1A7B PUSH2 0x187E JUMP JUMPDEST JUMPDEST PUSH0 PUSH2 0x1A89 DUP6 DUP3 DUP7 ADD PUSH2 0x19CD JUMP JUMPDEST SWAP3 POP POP PUSH1 0x20 PUSH2 0x1A9A DUP6 DUP3 DUP7 ADD PUSH2 0x1A52 JUMP JUMPDEST SWAP2 POP POP SWAP3 POP SWAP3 SWAP1 POP JUMP JUMPDEST PUSH0 PUSH1 0xA0 DUP3 DUP5 SUB SLT ISZERO PUSH2 0x1AB9 JUMPI PUSH2 0x1AB8 PUSH2 0x1939 JUMP JUMPDEST JUMPDEST DUP2 SWAP1 POP SWAP3 SWAP2 POP POP JUMP JUMPDEST PUSH0 PUSH1 0x20 DUP3 DUP5 SUB SLT ISZERO PUSH2 0x1AD7 JUMPI PUSH2 0x1AD6 PUSH2 0x187E JUMP JUMPDEST JUMPDEST PUSH0 DUP3 ADD CALLDATALOAD PUSH8 0xFFFFFFFFFFFFFFFF DUP2 GT ISZERO PUSH2 0x1AF4 JUMPI PUSH2 0x1AF3 PUSH2 0x1882 JUMP JUMPDEST JUMPDEST PUSH2 0x1B00 DUP5 DUP3 DUP6 ADD PUSH2 0x1AA4 JUMP JUMPDEST SWAP2 POP POP SWAP3 SWAP2 POP POP JUMP JUMPDEST PUSH32 0x546865207769746864726177616C20616D6F756E742063616E6E6F7420626520 PUSH0 DUP3 ADD MSTORE PUSH32 0x3000000000000000000000000000000000000000000000000000000000000000 PUSH1 0x20 DUP3 ADD MSTORE POP JUMP JUMPDEST PUSH0 PUSH2 0x1B63 PUSH1 0x21 DUP4 PUSH2 0x1806 JUMP JUMPDEST SWAP2 POP PUSH2 0x1B6E DUP3 PUSH2 0x1B09 JUMP JUMPDEST PUSH1 0x40 DUP3 ADD SWAP1 POP SWAP2 SWAP1 POP JUMP JUMPDEST PUSH0 PUSH1 0x20 DUP3 ADD SWAP1 POP DUP2 DUP2 SUB PUSH0 DUP4 ADD MSTORE PUSH2 0x1B90 DUP2 PUSH2 0x1B57 JUMP JUMPDEST SWAP1 POP SWAP2 SWAP1 POP JUMP JUMPDEST PUSH0 PUSH1 0x20 DUP3 DUP5 SUB SLT ISZERO PUSH2 0x1BAC JUMPI PUSH2 0x1BAB PUSH2 0x187E JUMP JUMPDEST JUMPDEST PUSH0 PUSH2 0x1BB9 DUP5 DUP3 DUP6 ADD PUSH2 0x1A52 JUMP JUMPDEST SWAP2 POP POP SWAP3 SWAP2 POP POP JUMP JUMPDEST PUSH32 0x546865207769746864726177616C20696E74656E74206D757374206265207375 PUSH0 DUP3 ADD MSTORE PUSH32 0x626D69747465642066726F6D2074686520696E69746961746F72206164647265 PUSH1 0x20 DUP3 ADD MSTORE PUSH32 0x7373000000000000000000000000000000000000000000000000000000000000 PUSH1 0x40 DUP3 ADD MSTORE POP JUMP JUMPDEST PUSH0 PUSH2 0x1C42 PUSH1 0x42 DUP4 PUSH2 0x1806 JUMP JUMPDEST SWAP2 POP PUSH2 0x1C4D DUP3 PUSH2 0x1BC2 JUMP JUMPDEST PUSH1 0x60 DUP3 ADD SWAP1 POP SWAP2 SWAP1 POP JUMP JUMPDEST PUSH0 PUSH1 0x20 DUP3 ADD SWAP1 POP DUP2 DUP2 SUB PUSH0 DUP4 ADD MSTORE PUSH2 0x1C6F DUP2 PUSH2 0x1C36 JUMP JUMPDEST SWAP1 POP SWAP2 SWAP1 POP JUMP JUMPDEST PUSH32 0x41207769746864726177616C20696E74656E742063616E6E6F74206265207375 PUSH0 DUP3 ADD MSTORE PUSH32 0x626D69747465642066726F6D2061207769746864726177616C206F7065726174 PUSH1 0x20 DUP3 ADD MSTORE PUSH32 0x6F72000000000000000000000000000000000000000000000000000000000000 PUSH1 0x40 DUP3 ADD MSTORE POP JUMP JUMPDEST PUSH0 PUSH2 0x1CF6 PUSH1 0x42 DUP4 PUSH2 0x1806 JUMP JUMPDEST SWAP2 POP PUSH2 0x1D01 DUP3 PUSH2 0x1C76 JUMP JUMPDEST PUSH1 0x60 DUP3 ADD SWAP1 POP SWAP2 SWAP1 POP JUMP JUMPDEST PUSH0 PUSH1 0x20 DUP3 ADD SWAP1 POP DUP2 DUP2 SUB PUSH0 DUP4 ADD MSTORE PUSH2 0x1D23 DUP2 PUSH2 0x1CEA JUMP JUMPDEST SWAP1 POP SWAP2 SWAP1 POP JUMP JUMPDEST PUSH0 PUSH2 0x1D38 PUSH1 0x20 DUP5 ADD DUP5 PUSH2 0x1A52 JUMP JUMPDEST SWAP1 POP SWAP3 SWAP2 POP POP JUMP JUMPDEST PUSH2 0x1D49 DUP2 PUSH2 0x1A2B JUMP JUMPDEST DUP3 MSTORE POP POP JUMP JUMPDEST PUSH0 DUP2 SWAP1 POP SWAP2 SWAP1 POP JUMP JUMPDEST PUSH2 0x1D61 DUP2 PUSH2 0x1D4F JUMP JUMPDEST DUP2 EQ PUSH2 0x1D6B JUMPI PUSH0 DUP1 REVERT JUMPDEST POP JUMP JUMPDEST PUSH0 DUP2 CALLDATALOAD SWAP1 POP PUSH2 0x1D7C DUP2 PUSH2 0x1D58 JUMP JUMPDEST SWAP3 SWAP2 POP POP JUMP JUMPDEST PUSH0 PUSH2 0x1D90 PUSH1 0x20 DUP5 ADD DUP5 PUSH2 0x1D6E JUMP JUMPDEST SWAP1 POP SWAP3 SWAP2 POP POP JUMP JUMPDEST PUSH2 0x1DA1 DUP2 PUSH2 0x1D4F JUMP JUMPDEST DUP3 MSTORE POP POP JUMP JUMPDEST PUSH1 0x80 DUP3 ADD PUSH2 0x1DB7 PUSH0 DUP4 ADD DUP4 PUSH2 0x1D2A JUMP JUMPDEST PUSH2 0x1DC3 PUSH0 DUP6 ADD DUP3 PUSH2 0x1D40 JUMP JUMPDEST POP PUSH2 0x1DD1 PUSH1 0x20 DUP4 ADD DUP4 PUSH2 0x1D2A JUMP JUMPDEST PUSH2 0x1DDE PUSH1 0x20 DUP6 ADD DUP3 PUSH2 0x1D40 JUMP JUMPDEST POP PUSH2 0x1DEC PUSH1 0x40 DUP4 ADD DUP4 PUSH2 0x1D2A JUMP JUMPDEST PUSH2 0x1DF9 PUSH1 0x40 DUP6 ADD DUP3 PUSH2 0x1D40 JUMP JUMPDEST POP PUSH2 0x1E07 PUSH1 0x60 DUP4 ADD DUP4 PUSH2 0x1D82 JUMP JUMPDEST PUSH2 0x1E14 PUSH1 0x60 DUP6 ADD DUP3 PUSH2 0x1D98 JUMP JUMPDEST POP POP POP POP JUMP JUMPDEST PUSH0 PUSH1 0x80 DUP3 ADD SWAP1 POP PUSH2 0x1E2D PUSH0 DUP4 ADD DUP5 PUSH2 0x1DA7 JUMP JUMPDEST SWAP3 SWAP2 POP POP JUMP JUMPDEST PUSH32 0x546865207769746864726177616C20696E74656E7420796F7520617265207472 PUSH0 DUP3 ADD MSTORE PUSH32 0x79696E6720746F207375626D697420697320616C726561647920616374697665 PUSH1 0x20 DUP3 ADD MSTORE POP JUMP JUMPDEST PUSH0 PUSH2 0x1E8D PUSH1 0x40 DUP4 PUSH2 0x1806 JUMP JUMPDEST SWAP2 POP PUSH2 0x1E98 DUP3 PUSH2 0x1E33 JUMP JUMPDEST PUSH1 0x40 DUP3 ADD SWAP1 POP SWAP2 SWAP1 POP JUMP JUMPDEST PUSH0 PUSH1 0x20 DUP3 ADD SWAP1 POP DUP2 DUP2 SUB PUSH0 DUP4 ADD MSTORE PUSH2 0x1EBA DUP2 PUSH2 0x1E81 JUMP JUMPDEST SWAP1 POP SWAP2 SWAP1 POP JUMP JUMPDEST PUSH2 0x1ECA DUP2 PUSH2 0x1A2B JUMP JUMPDEST DUP3 MSTORE POP POP JUMP JUMPDEST PUSH2 0x1ED9 DUP2 PUSH2 0x1D4F JUMP JUMPDEST DUP3 MSTORE POP POP JUMP JUMPDEST PUSH0 PUSH1 0x80 DUP3 ADD SWAP1 POP PUSH2 0x1EF2 PUSH0 DUP4 ADD DUP8 PUSH2 0x1EC1 JUMP JUMPDEST PUSH2 0x1EFF PUSH1 0x20 DUP4 ADD DUP7 PUSH2 0x1EC1 JUMP JUMPDEST PUSH2 0x1F0C PUSH1 0x40 DUP4 ADD DUP6 PUSH2 0x1EC1 JUMP JUMPDEST PUSH2 0x1F19 PUSH1 0x60 DUP4 ADD DUP5 PUSH2 0x1ED0 JUMP JUMPDEST SWAP6 SWAP5 POP POP POP POP POP JUMP JUMPDEST PUSH32 0x43616E206F6E6C792062652063616E63656C6C656420627920496E6974696174 PUSH0 DUP3 ADD MSTORE PUSH32 0x6F72206F72204F70657261746F722E0000000000000000000000000000000000 PUSH1 0x20 DUP3 ADD MSTORE POP JUMP JUMPDEST PUSH0 PUSH2 0x1F7C PUSH1 0x2F DUP4 PUSH2 0x1806 JUMP JUMPDEST SWAP2 POP PUSH2 0x1F87 DUP3 PUSH2 0x1F22 JUMP JUMPDEST PUSH1 0x40 DUP3 ADD SWAP1 POP SWAP2 SWAP1 POP JUMP JUMPDEST PUSH0 PUSH1 0x20 DUP3 ADD SWAP1 POP DUP2 DUP2 SUB PUSH0 DUP4 ADD MSTORE PUSH2 0x1FA9 DUP2 PUSH2 0x1F70 JUMP JUMPDEST SWAP1 POP SWAP2 SWAP1 POP JUMP JUMPDEST PUSH0 DUP1 REVERT JUMPDEST PUSH0 DUP1 REVERT JUMPDEST PUSH0 DUP1 REVERT JUMPDEST PUSH0 DUP1 DUP4 CALLDATALOAD PUSH1 0x1 PUSH1 0x20 SUB DUP5 CALLDATASIZE SUB SUB DUP2 SLT PUSH2 0x1FD8 JUMPI PUSH2 0x1FD7 PUSH2 0x1FB8 JUMP JUMPDEST JUMPDEST DUP4 DUP2 ADD SWAP3 POP DUP3 CALLDATALOAD SWAP2 POP PUSH1 0x20 DUP4 ADD SWAP3 POP PUSH8 0xFFFFFFFFFFFFFFFF DUP3 GT ISZERO PUSH2 0x2000 JUMPI PUSH2 0x1FFF PUSH2 0x1FB0 JUMP JUMPDEST JUMPDEST PUSH1 0x1 DUP3 MUL CALLDATASIZE SUB DUP4 SGT ISZERO PUSH2 0x2016 JUMPI PUSH2 0x2015 PUSH2 0x1FB4 JUMP JUMPDEST JUMPDEST POP SWAP3 POP SWAP3 SWAP1 POP JUMP JUMPDEST PUSH0 DUP3 DUP3 MSTORE PUSH1 0x20 DUP3 ADD SWAP1 POP SWAP3 SWAP2 POP POP JUMP JUMPDEST DUP3 DUP2 DUP4 CALLDATACOPY PUSH0 DUP4 DUP4 ADD MSTORE POP POP POP JUMP JUMPDEST PUSH0 PUSH1 0x1F NOT PUSH1 0x1F DUP4 ADD AND SWAP1 POP SWAP2 SWAP1 POP JUMP JUMPDEST PUSH0 PUSH2 0x2057 DUP4 DUP6 PUSH2 0x201E JUMP JUMPDEST SWAP4 POP PUSH2 0x2064 DUP4 DUP6 DUP5 PUSH2 0x202E JUMP JUMPDEST PUSH2 0x206D DUP4 PUSH2 0x203C JUMP JUMPDEST DUP5 ADD SWAP1 POP SWAP4 SWAP3 POP POP POP JUMP JUMPDEST PUSH0 PUSH1 0xA0 DUP4 ADD PUSH2 0x2089 PUSH0 DUP5 ADD DUP5 PUSH2 0x1D2A JUMP JUMPDEST PUSH2 0x2095 PUSH0 DUP7 ADD DUP3 PUSH2 0x1D40 JUMP JUMPDEST POP PUSH2 0x20A3 PUSH1 0x20 DUP5 ADD DUP5 PUSH2 0x1D2A JUMP JUMPDEST PUSH2 0x20B0 PUSH1 0x20 DUP7 ADD DUP3 PUSH2 0x1D40 JUMP JUMPDEST POP PUSH2 0x20BE PUSH1 0x40 DUP5 ADD DUP5 PUSH2 0x1D2A JUMP JUMPDEST PUSH2 0x20CB PUSH1 0x40 DUP7 ADD DUP3 PUSH2 0x1D40 JUMP JUMPDEST POP PUSH2 0x20D9 PUSH1 0x60 DUP5 ADD DUP5 PUSH2 0x1FBC JUMP JUMPDEST DUP6 DUP4 SUB PUSH1 0x60 DUP8 ADD MSTORE PUSH2 0x20EC DUP4 DUP3 DUP5 PUSH2 0x204C JUMP JUMPDEST SWAP3 POP POP POP PUSH2 0x20FD PUSH1 0x80 DUP5 ADD DUP5 PUSH2 0x1D82 JUMP JUMPDEST PUSH2 0x210A PUSH1 0x80 DUP7 ADD DUP3 PUSH2 0x1D98 JUMP JUMPDEST POP DUP1 SWAP2 POP POP SWAP3 SWAP2 POP POP JUMP JUMPDEST PUSH0 PUSH1 0x20 DUP3 ADD SWAP1 POP DUP2 DUP2 SUB PUSH0 DUP4 ADD MSTORE PUSH2 0x212D DUP2 DUP5 PUSH2 0x2078 JUMP JUMPDEST SWAP1 POP SWAP3 SWAP2 POP POP JUMP JUMPDEST PUSH32 0x4465706F73697420696E74656E74206973206E6F742061637469766500000000 PUSH0 DUP3 ADD MSTORE POP JUMP JUMPDEST PUSH0 PUSH2 0x2169 PUSH1 0x1C DUP4 PUSH2 0x1806 JUMP JUMPDEST SWAP2 POP PUSH2 0x2174 DUP3 PUSH2 0x2135 JUMP JUMPDEST PUSH1 0x20 DUP3 ADD SWAP1 POP SWAP2 SWAP1 POP JUMP JUMPDEST PUSH0 PUSH1 0x20 DUP3 ADD SWAP1 POP DUP2 DUP2 SUB PUSH0 DUP4 ADD MSTORE PUSH2 0x2196 DUP2 PUSH2 0x215D JUMP JUMPDEST SWAP1 POP SWAP2 SWAP1 POP JUMP JUMPDEST PUSH32 0x416363657373436F6E74726F6C3A2063616E206F6E6C792072656E6F756E6365 PUSH0 DUP3 ADD MSTORE PUSH32 0x20726F6C657320666F722073656C660000000000000000000000000000000000 PUSH1 0x20 DUP3 ADD MSTORE POP JUMP JUMPDEST PUSH0 PUSH2 0x21F7 PUSH1 0x2F DUP4 PUSH2 0x1806 JUMP JUMPDEST SWAP2 POP PUSH2 0x2202 DUP3 PUSH2 0x219D JUMP JUMPDEST PUSH1 0x40 DUP3 ADD SWAP1 POP SWAP2 SWAP1 POP JUMP JUMPDEST PUSH0 PUSH1 0x20 DUP3 ADD SWAP1 POP DUP2 DUP2 SUB PUSH0 DUP4 ADD MSTORE PUSH2 0x2224 DUP2 PUSH2 0x21EB JUMP JUMPDEST SWAP1 POP SWAP2 SWAP1 POP JUMP JUMPDEST PUSH32 0x546865206465706F73697420616D6F756E742063616E6E6F7420626520300000 PUSH0 DUP3 ADD MSTORE POP JUMP JUMPDEST PUSH0 PUSH2 0x225F PUSH1 0x1E DUP4 PUSH2 0x1806 JUMP JUMPDEST SWAP2 POP PUSH2 0x226A DUP3 PUSH2 0x222B JUMP JUMPDEST PUSH1 0x20 DUP3 ADD SWAP1 POP SWAP2 SWAP1 POP JUMP JUMPDEST PUSH0 PUSH1 0x20 DUP3 ADD SWAP1 POP DUP2 DUP2 SUB PUSH0 DUP4 ADD MSTORE PUSH2 0x228C DUP2 PUSH2 0x2253 JUMP JUMPDEST SWAP1 POP SWAP2 SWAP1 POP JUMP JUMPDEST PUSH32 0x54686520696E74656E6465642073656E6465722063616E6E6F74206265207468 PUSH0 DUP3 ADD MSTORE PUSH32 0x65206465706F73697420696E74656E74207375626D6974746572000000000000 PUSH1 0x20 DUP3 ADD MSTORE POP JUMP JUMPDEST PUSH0 PUSH2 0x22ED PUSH1 0x3A DUP4 PUSH2 0x1806 JUMP JUMPDEST SWAP2 POP PUSH2 0x22F8 DUP3 PUSH2 0x2293 JUMP JUMPDEST PUSH1 0x40 DUP3 ADD SWAP1 POP SWAP2 SWAP1 POP JUMP JUMPDEST PUSH0 PUSH1 0x20 DUP3 ADD SWAP1 POP DUP2 DUP2 SUB PUSH0 DUP4 ADD MSTORE PUSH2 0x231A DUP2 PUSH2 0x22E1 JUMP JUMPDEST SWAP1 POP SWAP2 SWAP1 POP JUMP JUMPDEST PUSH32 0x54686520696E74656E646564207265636569766572206D757374206265207468 PUSH0 DUP3 ADD MSTORE PUSH32 0x65206465706F73697420696E74656E74207375626D6974746572000000000000 PUSH1 0x20 DUP3 ADD MSTORE POP JUMP JUMPDEST PUSH0 PUSH2 0x237B PUSH1 0x3A DUP4 PUSH2 0x1806 JUMP JUMPDEST SWAP2 POP PUSH2 0x2386 DUP3 PUSH2 0x2321 JUMP JUMPDEST PUSH1 0x40 DUP3 ADD SWAP1 POP SWAP2 SWAP1 POP JUMP JUMPDEST PUSH0 PUSH1 0x20 DUP3 ADD SWAP1 POP DUP2 DUP2 SUB PUSH0 DUP4 ADD MSTORE PUSH2 0x23A8 DUP2 PUSH2 0x236F JUMP JUMPDEST SWAP1 POP SWAP2 SWAP1 POP JUMP JUMPDEST PUSH32 0x546865206465706F73697420696E74656E7420796F752061726520747279696E PUSH0 DUP3 ADD MSTORE PUSH32 0x6720746F207375626D697420697320616C726561647920616374697665000000 PUSH1 0x20 DUP3 ADD MSTORE POP JUMP JUMPDEST PUSH0 PUSH2 0x2409 PUSH1 0x3D DUP4 PUSH2 0x1806 JUMP JUMPDEST SWAP2 POP PUSH2 0x2414 DUP3 PUSH2 0x23AF JUMP JUMPDEST PUSH1 0x40 DUP3 ADD SWAP1 POP SWAP2 SWAP1 POP JUMP JUMPDEST PUSH0 PUSH1 0x20 DUP3 ADD SWAP1 POP DUP2 DUP2 SUB PUSH0 DUP4 ADD MSTORE PUSH2 0x2436 DUP2 PUSH2 0x23FD JUMP JUMPDEST SWAP1 POP SWAP2 SWAP1 POP JUMP JUMPDEST PUSH0 DUP1 REVERT JUMPDEST PUSH0 DUP1 REVERT JUMPDEST PUSH0 DUP1 REVERT JUMPDEST PUSH0 DUP1 DUP4 CALLDATALOAD PUSH1 0x1 PUSH1 0x20 SUB DUP5 CALLDATASIZE SUB SUB DUP2 SLT PUSH2 0x2465 JUMPI PUSH2 0x2464 PUSH2 0x243D JUMP JUMPDEST JUMPDEST DUP1 DUP5 ADD SWAP3 POP DUP3 CALLDATALOAD SWAP2 POP PUSH8 0xFFFFFFFFFFFFFFFF DUP3 GT ISZERO PUSH2 0x2487 JUMPI PUSH2 0x2486 PUSH2 0x2441 JUMP JUMPDEST JUMPDEST PUSH1 0x20 DUP4 ADD SWAP3 POP PUSH1 0x1 DUP3 MUL CALLDATASIZE SUB DUP4 SGT ISZERO PUSH2 0x24A3 JUMPI PUSH2 0x24A2 PUSH2 0x2445 JUMP JUMPDEST JUMPDEST POP SWAP3 POP SWAP3 SWAP1 POP JUMP JUMPDEST PUSH0 PUSH2 0x24B6 DUP4 DUP6 PUSH2 0x1806 JUMP JUMPDEST SWAP4 POP PUSH2 0x24C3 DUP4 DUP6 DUP5 PUSH2 0x202E JUMP JUMPDEST PUSH2 0x24CC DUP4 PUSH2 0x203C JUMP JUMPDEST DUP5 ADD SWAP1 POP SWAP4 SWAP3 POP POP POP JUMP JUMPDEST PUSH0 PUSH1 0xA0 DUP3 ADD SWAP1 POP PUSH2 0x24EA PUSH0 DUP4 ADD DUP10 PUSH2 0x1EC1 JUMP JUMPDEST PUSH2 0x24F7 PUSH1 0x20 DUP4 ADD DUP9 PUSH2 0x1EC1 JUMP JUMPDEST PUSH2 0x2504 PUSH1 0x40 DUP4 ADD DUP8 PUSH2 0x1EC1 JUMP JUMPDEST DUP2 DUP2 SUB PUSH1 0x60 DUP4 ADD MSTORE PUSH2 0x2517 DUP2 DUP6 DUP8 PUSH2 0x24AB JUMP JUMPDEST SWAP1 POP PUSH2 0x2526 PUSH1 0x80 DUP4 ADD DUP5 PUSH2 0x1ED0 JUMP JUMPDEST SWAP8 SWAP7 POP POP POP POP POP POP POP JUMP JUMPDEST PUSH0 PUSH1 0x40 DUP3 ADD SWAP1 POP PUSH2 0x2544 PUSH0 DUP4 ADD DUP6 PUSH2 0x1EC1 JUMP JUMPDEST PUSH2 0x2551 PUSH1 0x20 DUP4 ADD DUP5 PUSH2 0x1EC1 JUMP JUMPDEST SWAP4 SWAP3 POP POP POP JUMP JUMPDEST PUSH0 DUP2 MLOAD SWAP1 POP PUSH2 0x2566 DUP2 PUSH2 0x1D58 JUMP JUMPDEST SWAP3 SWAP2 POP POP JUMP JUMPDEST PUSH0 PUSH1 0x20 DUP3 DUP5 SUB SLT ISZERO PUSH2 0x2581 JUMPI PUSH2 0x2580 PUSH2 0x187E JUMP JUMPDEST JUMPDEST PUSH0 PUSH2 0x258E DUP5 DUP3 DUP6 ADD PUSH2 0x2558 JUMP JUMPDEST SWAP2 POP POP SWAP3 SWAP2 POP POP JUMP JUMPDEST PUSH32 0x496E73756666696369656E7420616C6C6F77616E636520666F72204552433230 PUSH0 DUP3 ADD MSTORE PUSH32 0x20746F6B656E0000000000000000000000000000000000000000000000000000 PUSH1 0x20 DUP3 ADD MSTORE POP JUMP JUMPDEST PUSH0 PUSH2 0x25F1 PUSH1 0x26 DUP4 PUSH2 0x1806 JUMP JUMPDEST SWAP2 POP PUSH2 0x25FC DUP3 PUSH2 0x2597 JUMP JUMPDEST PUSH1 0x40 DUP3 ADD SWAP1 POP SWAP2 SWAP1 POP JUMP JUMPDEST PUSH0 PUSH1 0x20 DUP3 ADD SWAP1 POP DUP2 DUP2 SUB PUSH0 DUP4 ADD MSTORE PUSH2 0x261E DUP2 PUSH2 0x25E5 JUMP JUMPDEST SWAP1 POP SWAP2 SWAP1 POP JUMP JUMPDEST PUSH0 PUSH1 0x60 DUP3 ADD SWAP1 POP PUSH2 0x2638 PUSH0 DUP4 ADD DUP7 PUSH2 0x1EC1 JUMP JUMPDEST PUSH2 0x2645 PUSH1 0x20 DUP4 ADD DUP6 PUSH2 0x1EC1 JUMP JUMPDEST PUSH2 0x2652 PUSH1 0x40 DUP4 ADD DUP5 PUSH2 0x1ED0 JUMP JUMPDEST SWAP5 SWAP4 POP POP POP POP JUMP JUMPDEST PUSH2 0x2663 DUP2 PUSH2 0x1906 JUMP JUMPDEST DUP2 EQ PUSH2 0x266D JUMPI PUSH0 DUP1 REVERT JUMPDEST POP JUMP JUMPDEST PUSH0 DUP2 MLOAD SWAP1 POP PUSH2 0x267E DUP2 PUSH2 0x265A JUMP JUMPDEST SWAP3 SWAP2 POP POP JUMP JUMPDEST PUSH0 PUSH1 0x20 DUP3 DUP5 SUB SLT ISZERO PUSH2 0x2699 JUMPI PUSH2 0x2698 PUSH2 0x187E JUMP JUMPDEST JUMPDEST PUSH0 PUSH2 0x26A6 DUP5 DUP3 DUP6 ADD PUSH2 0x2670 JUMP JUMPDEST SWAP2 POP POP SWAP3 SWAP2 POP POP JUMP JUMPDEST PUSH32 0x546F6B656E207472616E73666572206661696C65640000000000000000000000 PUSH0 DUP3 ADD MSTORE POP JUMP JUMPDEST PUSH0 PUSH2 0x26E3 PUSH1 0x15 DUP4 PUSH2 0x1806 JUMP JUMPDEST SWAP2 POP PUSH2 0x26EE DUP3 PUSH2 0x26AF JUMP JUMPDEST PUSH1 0x20 DUP3 ADD SWAP1 POP SWAP2 SWAP1 POP JUMP JUMPDEST PUSH0 PUSH1 0x20 DUP3 ADD SWAP1 POP DUP2 DUP2 SUB PUSH0 DUP4 ADD MSTORE PUSH2 0x2710 DUP2 PUSH2 0x26D7 JUMP JUMPDEST SWAP1 POP SWAP2 SWAP1 POP JUMP JUMPDEST PUSH32 0x5769746864726177616C20696E74656E74206973206E6F742061637469766500 PUSH0 DUP3 ADD MSTORE POP JUMP JUMPDEST PUSH0 PUSH2 0x274B PUSH1 0x1F DUP4 PUSH2 0x1806 JUMP JUMPDEST SWAP2 POP PUSH2 0x2756 DUP3 PUSH2 0x2717 JUMP JUMPDEST PUSH1 0x20 DUP3 ADD SWAP1 POP SWAP2 SWAP1 POP JUMP JUMPDEST PUSH0 PUSH1 0x20 DUP3 ADD SWAP1 POP DUP2 DUP2 SUB PUSH0 DUP4 ADD MSTORE PUSH2 0x2778 DUP2 PUSH2 0x273F JUMP JUMPDEST SWAP1 POP SWAP2 SWAP1 POP JUMP JUMPDEST PUSH0 PUSH1 0x40 DUP3 ADD SWAP1 POP PUSH2 0x2792 PUSH0 DUP4 ADD DUP6 PUSH2 0x1EC1 JUMP JUMPDEST PUSH2 0x279F PUSH1 0x20 DUP4 ADD DUP5 PUSH2 0x1ED0 JUMP JUMPDEST SWAP4 SWAP3 POP POP POP JUMP JUMPDEST PUSH0 DUP2 SWAP1 POP SWAP3 SWAP2 POP POP JUMP JUMPDEST PUSH32 0x416363657373436F6E74726F6C3A206163636F756E7420000000000000000000 PUSH0 DUP3 ADD MSTORE POP JUMP JUMPDEST PUSH0 PUSH2 0x27E4 PUSH1 0x17 DUP4 PUSH2 0x27A6 JUMP JUMPDEST SWAP2 POP PUSH2 0x27EF DUP3 PUSH2 0x27B0 JUMP JUMPDEST PUSH1 0x17 DUP3 ADD SWAP1 POP SWAP2 SWAP1 POP JUMP JUMPDEST PUSH0 DUP2 MLOAD SWAP1 POP SWAP2 SWAP1 POP JUMP JUMPDEST PUSH0 JUMPDEST DUP4 DUP2 LT ISZERO PUSH2 0x2821 JUMPI DUP1 DUP3 ADD MLOAD DUP2 DUP5 ADD MSTORE PUSH1 0x20 DUP2 ADD SWAP1 POP PUSH2 0x2806 JUMP JUMPDEST PUSH0 DUP5 DUP5 ADD MSTORE POP POP POP POP JUMP JUMPDEST PUSH0 PUSH2 0x2836 DUP3 PUSH2 0x27FA JUMP JUMPDEST PUSH2 0x2840 DUP2 DUP6 PUSH2 0x27A6 JUMP JUMPDEST SWAP4 POP PUSH2 0x2850 DUP2 DUP6 PUSH1 0x20 DUP7 ADD PUSH2 0x2804 JUMP JUMPDEST DUP1 DUP5 ADD SWAP2 POP POP SWAP3 SWAP2 POP POP JUMP JUMPDEST PUSH32 0x206973206D697373696E6720726F6C6520000000000000000000000000000000 PUSH0 DUP3 ADD MSTORE POP JUMP JUMPDEST PUSH0 PUSH2 0x2890 PUSH1 0x11 DUP4 PUSH2 0x27A6 JUMP JUMPDEST SWAP2 POP PUSH2 0x289B DUP3 PUSH2 0x285C JUMP JUMPDEST PUSH1 0x11 DUP3 ADD SWAP1 POP SWAP2 SWAP1 POP JUMP JUMPDEST PUSH0 PUSH2 0x28B0 DUP3 PUSH2 0x27D8 JUMP JUMPDEST SWAP2 POP PUSH2 0x28BC DUP3 DUP6 PUSH2 0x282C JUMP JUMPDEST SWAP2 POP PUSH2 0x28C7 DUP3 PUSH2 0x2884 JUMP JUMPDEST SWAP2 POP PUSH2 0x28D3 DUP3 DUP5 PUSH2 0x282C JUMP JUMPDEST SWAP2 POP DUP2 SWAP1 POP SWAP4 SWAP3 POP POP POP JUMP JUMPDEST PUSH0 PUSH2 0x28E9 DUP3 PUSH2 0x27FA JUMP JUMPDEST PUSH2 0x28F3 DUP2 DUP6 PUSH2 0x1806 JUMP JUMPDEST SWAP4 POP PUSH2 0x2903 DUP2 DUP6 PUSH1 0x20 DUP7 ADD PUSH2 0x2804 JUMP JUMPDEST PUSH2 0x290C DUP2 PUSH2 0x203C JUMP JUMPDEST DUP5 ADD SWAP2 POP POP SWAP3 SWAP2 POP POP JUMP JUMPDEST PUSH0 PUSH1 0x20 DUP3 ADD SWAP1 POP DUP2 DUP2 SUB PUSH0 DUP4 ADD MSTORE PUSH2 0x292F DUP2 DUP5 PUSH2 0x28DF JUMP JUMPDEST SWAP1 POP SWAP3 SWAP2 POP POP JUMP JUMPDEST PUSH32 0x4E487B7100000000000000000000000000000000000000000000000000000000 PUSH0 MSTORE PUSH1 0x11 PUSH1 0x4 MSTORE PUSH1 0x24 PUSH0 REVERT JUMPDEST PUSH0 PUSH2 0x296E DUP3 PUSH2 0x1D4F JUMP JUMPDEST SWAP2 POP PUSH2 0x2979 DUP4 PUSH2 0x1D4F JUMP JUMPDEST SWAP3 POP DUP3 DUP3 MUL PUSH2 0x2987 DUP2 PUSH2 0x1D4F JUMP JUMPDEST SWAP2 POP DUP3 DUP3 DIV DUP5 EQ DUP4 ISZERO OR PUSH2 0x299E JUMPI PUSH2 0x299D PUSH2 0x2937 JUMP JUMPDEST JUMPDEST POP SWAP3 SWAP2 POP POP JUMP JUMPDEST PUSH0 PUSH2 0x29AF DUP3 PUSH2 0x1D4F JUMP JUMPDEST SWAP2 POP PUSH2 0x29BA DUP4 PUSH2 0x1D4F JUMP JUMPDEST SWAP3 POP DUP3 DUP3 ADD SWAP1 POP DUP1 DUP3 GT ISZERO PUSH2 0x29D2 JUMPI PUSH2 0x29D1 PUSH2 0x2937 JUMP JUMPDEST JUMPDEST SWAP3 SWAP2 POP POP JUMP JUMPDEST PUSH32 0x4E487B7100000000000000000000000000000000000000000000000000000000 PUSH0 MSTORE PUSH1 0x41 PUSH1 0x4 MSTORE PUSH1 0x24 PUSH0 REVERT JUMPDEST PUSH32 0x4E487B7100000000000000000000000000000000000000000000000000000000 PUSH0 MSTORE PUSH1 0x32 PUSH1 0x4 MSTORE PUSH1 0x24 PUSH0 REVERT JUMPDEST PUSH0 PUSH2 0x2A3C DUP3 PUSH2 0x1D4F JUMP JUMPDEST SWAP2 POP PUSH0 DUP3 SUB PUSH2 0x2A4E JUMPI PUSH2 0x2A4D PUSH2 0x2937 JUMP JUMPDEST JUMPDEST PUSH1 0x1 DUP3 SUB SWAP1 POP SWAP2 SWAP1 POP JUMP JUMPDEST PUSH32 0x537472696E67733A20686578206C656E67746820696E73756666696369656E74 PUSH0 DUP3 ADD MSTORE POP JUMP JUMPDEST PUSH0 PUSH2 0x2A8D PUSH1 0x20 DUP4 PUSH2 0x1806 JUMP JUMPDEST SWAP2 POP PUSH2 0x2A98 DUP3 PUSH2 0x2A59 JUMP JUMPDEST PUSH1 0x20 DUP3 ADD SWAP1 POP SWAP2 SWAP1 POP JUMP JUMPDEST PUSH0 PUSH1 0x20 DUP3 ADD SWAP1 POP DUP2 DUP2 SUB PUSH0 DUP4 ADD MSTORE PUSH2 0x2ABA DUP2 PUSH2 0x2A81 JUMP JUMPDEST SWAP1 POP SWAP2 SWAP1 POP JUMP INVALID LOG2 PUSH5 0x6970667358 0x22 SLT KECCAK256 DELEGATECALL 0x49 MSIZE CALL 0x4C 0x4D DUP15 EXTCODEHASH LOG4 DUP6 SIGNEXTEND 0x4E 0xA8 MUL PUSH24 0xC150F295B7127E1C4D51924FB13BB68F8E64736F6C634300 ADDMOD EQ STOP CALLER "},"methodIdentifiers":{"DEFAULT_ADMIN_ROLE()":"a217fddf","cancelDepositIntent((address,address,address,string,uint256))":"3210671e","cancelWithdrawalIntent((address,address,address,uint256))":"ffa35996","confirmWithdrawalIntent((address,address,address,uint256))":"ef52954c","getRoleAdmin(bytes32)":"248a9ca3","grantRole(bytes32,address)":"2f2ff15d","hasRole(bytes32,address)":"91d14854","isDepositIntentActive(bytes32)":"7d582085","isWithdrawalIntentActive(bytes32)":"a9f34983","renounceRole(bytes32,address)":"36568abe","revokeRole(bytes32,address)":"d547741f","satisfyDepositIntent((address,address,address,string,uint256))":"c816da88","submitDepositIntent((address,address,address,string,uint256))":"7526d270","submitWithdrawalIntent((address,address,address,uint256))":"1ac50a48","supportsInterface(bytes4)":"01ffc9a7"}}}}}